:020000040000fa
:080000000002040000000000f2
:020000040000fa
:100400000f6424000e7f24000e018800000000000d
:100410000c000700e0ed2900010020001f0007008c
:10042000000020000000e000020032000000020096
:10043000000000000c8a0200000000000040da000a
:100440000000fe004440a900209923000000e000c5
:100450000300320000002000a00188004440a800f2
:1004600000000600f03fb1000180b1000600350039
:10047000ee03090000000000403fb1000180b10020
:10048000fbff3d001000b000203fb000020035002f
:1004900000800900000000000000060091018800b3
:1004a000800078000000eb0015003700e28040007b
:1004b00032a0b4009101ba00e280400032a0b40042
:1004c0009102ba00e280400032a0b4000002eb00ca
:1004d000472bde00f507b200602ce10004003a0073
:1004e0000059eb008301e900fdff3e0004003700e6
:1004f0006128e100010032000082eb0004000700e7
:100500001101ba000200e000e8ff3a000000060016
:100510003159ba008301e9000c0032002159ba00b8
:100520008301e900080032000400e00003003a0003
:10053000e280400032a0b400f5ff370011d9ba00c4
:100540008301e900faff3a008100e800e180400001
:1005500032a0b400000006000040da000000fe00f7
:10056000800078001104b100030035009101b10052
:1005700001003c000050a000000006008000780050
:100580001106b100030035009101b10001003c00eb
:100590000050a100000006000a00fa008001780067
:1005a000e20f500028003e00d02e8200e10f5000e4
:1005b00008003200802320000000e0000500320027
:1005c00004232000252320004623200080017800fa
:1005d00004003700042220002522200046222000ab
:1005e00083222000144090000004e0000400350045
:1005f0008009eb00144090000074a00010429800a5
:10060000154090000028a30003003a001540900018
:100610000024a000904298008001eb000700370002
:10062000154090000008a300fdff320063c0780071
:100630000000fb00000b78008301e800828f51006e
:10064000f7ff3a000800370030002000b0bf9f00dd
:10065000c3bf9f00d1bf9f00e2bf9f006a805700c9
:1006600000c0da006fb99700020078000080fa003d
:1006700000000600020ab900001bb9000200b80021
:10068000810042008100430000000600889fbe00f8
:100690008a9fbe008c1f78000205be000004be00c9
:1006a0000006eb00e00f5000e08f5800e00f59000b
:1006b000e08f590007003d006000b8006011b800ed
:1006c00008045000898458000a0559008b85590098
:1006d0001c002000e00f5200e08f5a00e00f5b008a
:1006e000e08f5b0002003d000f0007000c00a2003d
:1006f0000800be000a01be00290207000203be0076
:100700000002be000c00e0000100320006000700fd
:100710000400be000601be004f0678004f05be0073
:100720004f04be00000006006000b8006011b80071
:10073000040250008582580006035900878359003f
:1007400000000600881f7800000478005001be00f9
:100750004000be00040040008580480006014900ba
:1007600087814900009cbe000294be000400e100a5
:100770000588e1000690e1000798e10002003100e1
:10078000680044001008e8004f04780000000600ec
:10079000f4874700889fbe008a9fbe008c9fbe00e2
:1007a0008e1f78000205be000004be00d4b79f0073
:1007b000e5b79f00f6b79f0087bf9f000000eb00e2
:1007c000c0b79f00b0b79f00a0b79f0090b79f0031
:1007d00080b79f000d042000bfb097004fb0970076
:1007e000000140000000e0000f003d004f08de0067
:1007f00000007100c0b79f009e00070001003d008f
:1008000012002000a100070001003d00120020009e
:10081000a6000700b1000700b60007000f00400067
:10082000c8ff0700220037004f08de0000067100f5
:10083000ccb79f008f00070001003d001200200090
:100840009200070001003d00120020009700070001
:10085000a20007000fb297009fb297002fb3970036
:10086000bfb39700a90007000000520081805a0022
:1008700002015b0083815b0080b79f0091b79f00fe
:10088000a2b79f00b3b79f000007eb009f000700cf
:100890000020e10001a8e10002b0e10003b8e1009e
:1008a000010031001e0020000e005600c0b79f005e
:1008b0004fb297000400e000070035001000200050
:1008c000010020006011b8000804700089847000e5
:1008d0000a0571008b8571008d06e900beff3a00a4
:1008e0000400e00003003d00820007000f0040000c
:1008f00094ff07004fa897000000e00004003a00b2
:100900000fb497009fb497002fb59700bfb597001d
:10091000940007004f0778004f06be004f05be0049
:100920004f04be004f01b10000000600881f780090
:1009300018002000881f780095ff07008f87e900c6
:100940004f04780000000600801feb0090ff0700b6
:100950008f87e90000000600889fbe008a9fbe00c6
:100960008c1f78006e00070007003d007300070031
:10097000e00f5b00e08f5b0007003d0032000700e6
:100980000006eb00040037003400070002003d00c1
:100990002a0007001c00200072000700e3ff070088
:1009a0000203be000002be000c00e00001003200a5
:1009b000220007000400be000601be004f067800ba
:1009c0004f05be004f04be0000000600889fbe0019
:1009d0008a9fbe008c1f78005100070005003d0073
:1009e00056000700e00f5b00e08f5b0006003d0053
:1009f000040037001900070003003d006000b80044
:100a00006011b8001000070056000700ceff070075
:100a10000203be000002be000c00e0000100320034
:100a2000060007000400be000601be004f06780065
:100a30004f05be004f04be00000006006000b80075
:100a40006011b80000003700040250008582580091
:100a50000603590087835900000006000006eb00da
:100a6000e00f5200e08f5a00e00f5b00e08f5b0068
:100a7000000006000180400090b79f000001eb00dd
:100a80008fb097000100e000000006000200700037
:100a900090b79f000180400080b79f000001eb00ed
:100aa000ffa897000100e0000000060002007000af
:100ab00080b79f00018040006faa9700cf20de0022
:100ac00001007000f0af9f00040242002500070003
:100ad0004f18de000002720000000600e4af9f0025
:100ae0000804440089844c000a054d008b854d00a4
:100af000000006003fb29700cfb297005fb39700a7
:100b0000efb3970000fe2f00000006003fb09700f3
:100b1000cfb097005fb19700efb1970000000600db
:100b20000205be000004be00e00f5000e08f580038
:100b3000e00f5900e08f5900000006006000b80087
:100b40006011b80008045000898458000a05590053
:100b50008b8559001c002000e00f5200e08f5a00e6
:100b6000000006000800be000a01be0000000600ea
:100b70006022b800060220000000d0008180d20070
:100b80000482d2008582d2000000a000020252003e
:100b900083825a00030031000202420083824a002d
:100ba0000000a1000603e900f3ff3a000000060080
:100bb000889fbe008a9fbe00010578000100e0000a
:100bc0000400350008003c000000e0002000320076
:100bd0000500370060001000e080180002003b00b4
:100be00001f02c001a0037000004be006011b800ac
:100bf0006b0920000982cf00020039000882cf0073
:100c00000441b000694252000e00320008003b006f
:100c100082817100610164008904d1000884d300dd
:100c20008b05e8000442e800f9ff3a0005003700b0
:100c30000804440089844c008b05e9000442e90063
:100c4000fbff3a00f80007000af0a70001f0a0003f
:100c50004f05be004f04be0000000600889fbe0086
:100c60008a9fbe008c1f7800150107001c0133000d
:100c700003866c006450e100240032006420e1002f
:100c8000270032006150e100220032006120e100c3
:100c9000210032008b854200eb07b1000134b8001f
:100ca000003ab8000804420089844a00013ab800ba
:100cb0000030b8008880400009014a000400330079
:100cc0000000400081804800020149008b05e900d6
:100cd000c909dd008301700001003200130020000b
:100ce000c814de004814dd004709de001200b2001f
:100cf000c808de0008847000cb00070001f0a100e6
:100d00000cf0a70001f0a000fe0037006120e10018
:100d1000000132000801be000200be00f7ff3700ec
:100d20006150e100fcff3a00fa00370003f0a20036
:100d3000889fbe008a9fbe008c1f7800e0000700dd
:100d4000e70033006450e1004f0032006420e1000e
:100d50005200320003826c0007003b000905d000fe
:100d60000306d000820f54000c065d00020039001b
:100d70000200320089017800030678008582550060
:100d800004003d000003fd008103fd008502ea0030
:100d90008b854200840f720002003b00600010004f
:100da000e08018006011b8000005eb007a28e1002f
:100db0000a00390006007800c75ddd00f707b200c1
:100dc000878075002d003700828171000a0178004c
:100dd000610560008180d1000080d3008502e900b8
:100de000f9ff3b00060440008784480002003b00f6
:100df00060041400e0841c000988a300070032008e
:100e00008a81710082817100610164008904d100ce
:100e10000884d3008b05e800170037000978a30089
:100e200013003a000b00e000130034008b05e900ca
:100e30000804440089844c000a4474000978a30023
:100e40000d003a000b00e000070034008b05e900bc
:100e50000804440089844c0001003a000b00200083
:100e60000978a300f7ff32000001eb000200370011
:100e7000828171000a0178006b0007000cf0a70066
:100e800001f0a0009f0037006420e10002003a005a
:100e9000838f6c009f0033000801be000200be007b
:100ea000980037000001be009d0007000470a700f5
:100eb00003f0a1006509b100160032000d003500f5
:100ec0006828e10006003500f0ff2f00f1ff270041
:100ed0000300e00013003b000100280000000500b3
:100ee00000004000818048008502e900fcff3a00d4
:100ef00008003700f88f420002003c008000eb0041
:100f0000000005008100d1000080d3008502e800c8
:100f1000fcff3a000300e00002003b00600010000c
:100f2000e080180000000600839f68000100e000d8
:100f300002003d0060001000e08018000300e000a7
:100f400002003d0060011100e081190008ff070068
:100f50004f00e00002003b0060001000e08018003d
:100f600000000600811f78000100e00002003d0043
:100f700060001000e08018000300e00002003d0067
:100f800060011100e08119007a0007004f00e000c5
:100f900002003b0060001000e08018000000060026
:100fa000889fbe008a9fbe008c9fbe000404b800cc
:100fb0000506b8008904460060854e000606b800a4
:100fc0000a054600e0854e000706b8008b0546007e
:100fd000040eb800890446000a854e00e0854d00e5
:100fe000050eb8000a0546008b854e00060eb800b7
:100ff0008b0546000416b8000a0546008b854e0096
:101000000516b8008b054600041eb8008b05460087
:101010000800be000a01be004f06be004f05be001c
:101020004f04be00000006008100200061805500d2
:101030000b003d000b00200061fe2f000100e100cd
:101040001d00340082817100610164008904d100b7
:101050000884d3000000e800faff3a007100200085
:1010600061006400030070000200600009003200ab
:1010700061044400e0844c000988a50005003200aa
:101080008b05e8006808e10002003a008904d100fd
:101090000884d300f20f20000258e10005003d0053
:1010a000c75ddd00f907b20089807500080078008f
:1010b000000006000bf827008b00780000000500f8
:1010c0000004be00160007000003be000405be00b9
:1010d0000200be0012000700844f750000000600e9
:1010e0000200be006450e100050036006420e1000b
:1010f000020036000968a30001003a000800be00a3
:101100000160a0004f0678004f05be004f04be00ee
:1011100000000600f0ff2f00f1ff2700f9ff370065
:10112000c70ade00f107b200f50fb2000800320076
:10113000e1cf4200020032000170a000240005004f
:10114000810f700001003200040805004400050012
:10115000810f700002003a00140005008502e900ca
:101160000000400081c04800fcff3b000170a0006f
:10117000240005007efe07000400be0000000600fb
:101180001013880021138800021388000000060055
:101190008820a900e7416000c419dd00410b200050
:1011a00091407800f2c8b30082c0600083c0700034
:1011b0008000fd00b4e0b7008000fd006800600022
:1011c0004300de000040400081092000914078008b
:1011d0000114a10080c070000100780098e0b70001
:1011e0000000060064198800871988009319880098
:1011f0002219880011198800001988000000d10008
:1012000061406000004040000132200091407800c1
:101210000114a10080c070000100780020e3b70035
:101220000000060085a0a900e7416000c419dd00a8
:10123000a10a200091407800f2c8b30082c060008b
:1012400083c070008000fd00aae0b7008000fd00b0
:10125000680060004300de004500dd005109200009
:10126000914078000154a10080c070000100780016
:1012700095e0b700000006002023a900000006004a
:101280000080fb00000040000130200060807800fa
:10129000000006000021ef001108880020088800e7
:1012a000000006008460a900e7416000c419dd0069
:1012b000510a200091407800f2c8b30082c060005b
:1012c00083c070008000fd00a5e0b7008000fd0035
:1012d000680060004300de004300dd00410920009b
:1012e000914078000134a10080c0700001007800b6
:1012f00094e0b700000006000621ef0061088800b6
:10130000800888001061a9000000060084e0a900a0
:10131000e7416000c419dd00710a200091407800a7
:10132000f2c8b30082c0600083c070008000fd007e
:10133000a7e0b7008000fd00680060004300de0009
:101340004700dd0041092000914078000174a100b0
:1013500080c070000100780094e0b7000000060033
:101360000a21ef007108880090088800000006003c
:101370008500a900e7416000810a200091407800c3
:1013800082cfb30082c0600083c070008000fd0087
:10139000a8e0b7008000fd00680060004300de00a8
:1013a00051092000914078000104a10080c0700024
:1013b0000100780095e0b700000006004318200007
:1013c0009341780084cfb30084c161008001fd00a7
:1013d00084e1b7008001fd00010c8800120c880038
:1013e000200c880000000600a3182000934178001c
:1013f00084cfb30084c161008001fd008ae1b700a1
:101400008001fd00310c8800420c8800500c8800df
:1014100000000600421188000011880011118800a8
:10142000000006008560a9008580a900e7416000f2
:10143000c419dd00910a200091407800f2c8b30081
:1014400082c0600083c070008000fd00a9e0b7008a
:101450008000fd00800178000307b200c419de009f
:10146000a10a20009140780082cfb30082c06000c2
:1014700083c070008000fd00aae0b7008000fd007e
:10148000680160004311de004311dd0051092000b6
:10149000914078000134a10082c070008000fd00fe
:1014a00095e0b7008000fd000008b2004700de00b4
:1014b0004400dd0051092000914078000144a10062
:1014c00080c070000100780095e0b70000000600c1
:1014d0000001780084c1bf00660060008080eb00de
:1014e000e60f500002003a00020c880011002000b4
:1014f0000100780000000600000178008ac1bf00ea
:10150000660060008080eb00e60f500002003a00a9
:10151000320c880011002000010078000000060055
:1015200094e0a90011e1a90084e0a90000000600f0
:101530009500a90013e1a9008500a900000006009c
:101540009460a90005e1a9008460a90000000600dc
:101550008000780063c2bf000028a30001003a00a9
:10156000f10fb200411388000000060060c2bf0006
:101570008080eb000008a3000800320060c2a900d0
:1015800063c2bf000028a3000200320041138000a4
:101590000200370041138000f10fb2000100780013
:1015a00000000600800078003004e000feff3a00f2
:1015b000010050000000e90000000600889fbe0006
:1015c0000004be00060037000804e8000000fb002d
:1015d000890078000b010700e10f40000400320091
:1015e000184078000004e000f7ff3a000000eb002c
:1015f0004f04be0000000600881f7800415b2400f5
:10160000eeff070000047800415b2400a0002000ea
:10161000fc000700080078004f0478000000060076
:1016200001002000702e8a00812e8a0011c0b300b4
:10163000c05c24000148780000000600c25c240061
:101640001204e00006003a00100020000100200013
:10165000702e8a00812e8a0010c0b30000497800e5
:10166000d2e62400631c2400702e8200812e8200aa
:1016700000fc07000001be009003230001002000d1
:101680000200400083804800702e8a00812e8a006c
:101690004088de00cf80de0000f0a10000000600e0
:1016a0008001eb000200370061f079008301e8005f
:1016b000828f5100fcff3a00000006000c00fa0087
:1016c000889fbe0000047800cfb09700f0ff27008d
:1016d000d0bf9f008004eb0099bf9f0088bf9f0090
:1016e000a8bf9f00200c2000b0bf9f00788157004a
:1016f000708057000a0107000fb89700094878006a
:101700000fb8970008045000080078004f04be008e
:101710000080fa00000006000000fa00cfb8970031
:1017200068815700405b2400fd0007000080fa003c
:101730000000060010417800b141510003003a005a
:101740000000e8000204e000faff3a000300fb009a
:1017500000000600810178000002eb000b0037005a
:10176000e44078000104e000030032000402e800d5
:1017700093cf5000040032008180fb001380fb00f7
:1017800000805000000006008301e800820f520034
:10179000f3ff3a0000000500889fbe000004be0071
:1017a0000000e00003003a00c82e82000800e000bc
:1017b000130032000800be008e030700000444003e
:1017c0001804e00004003a000000eb00c02e8a007c
:1017d000000478000a0037000800be0098030700e4
:1017e00000004400c02e8a001004e0000200320015
:1017f0000058eb00010037000000eb00c02e8a000b
:10180000080078004f04be000000060000017800c8
:1018100000c2b300010037000201e80092407800e6
:1018200080cf5000fcff3200e9cf5000faff3200b9
:10183000d0c2b30080cf500003003a000201e8009c
:1018400014c0b300050037000042eb00b0c2b30083
:1018500080cf500001003a000201e8008000eb0058
:1018600005fd2f00040037006a08b9000080410020
:10187000850040000201e8009201fb000580410064
:10188000e90f5000f8ff36000404e00001003200c8
:101890008100ea000100780000000600889fbe0079
:1018a0000004be00080037008000fb00090078003b
:1018b000760307000000e000020032000800780014
:1018c000050037000804e800184078000004e00034
:1018d000f5ff3a000000eb004f04be0000000600d8
:1018e0000003780080027800020278008001eb009b
:1018f000080037000402e90063c07800805a7800cd
:101900008301e8000004e00002003a008000eb00e0
:1019100006003700828f5100f6ff3a00fbff3700c8
:101920000040eb0080f07a008100e800848f5000d6
:10193000fbff3a000600780000000600889fbe000a
:101940008a9fbe008000780000c2b300010037000b
:10195000890078008104780039447800804f540071
:10196000fbff3200e94f5400f9ff3200d0c2b30050
:10197000804f540004003a00194478008184e80044
:101980001ac0b300060037000045eb00b0c2b30038
:10199000804f540002003a00194478008184e80026
:1019a0006022b8000a003700a200200003002000d7
:1019b0000400be002ffb07000b4144000281fb0026
:1019c0000300200000024100818249003944780070
:1019d0000880fb000bfd2f000b004000e90f5000ba
:1019e000f1ff36000a04e00002003200600212003b
:1019f000e0821a000400be004f05be004f04be0086
:101a000000000600889fbe000001780001047800f5
:101a1000b10090000118a3003d0032000198a3001e
:101a200003003a00180090000000e00038003a007f
:101a30000190a0003104980082047800f90fb200f0
:101a4000180090000000e00002003a00280090001a
:101a5000000c7800ea8f540006003a00380090002d
:101a60000078a30003003a0088007800d00020002e
:101a7000e4ff07009800900058009000808f50000d
:101a80000b0032000100e8001004980018007800f4
:101a900009587800000c780011c0b300605d240084
:101aa00001487800ea8f5400060032001900370020
:101ab0008800780009407800fc0207008004780064
:101ac00014003700380090000088a3001100320095
:101ad00018019000a800900048009000aefa07009e
:101ae00098009000810f50000400320038009000f0
:101af0000003b300300498008084eb000000eb008a
:101b00001004980028009000000c780001003700b5
:101b10008084eb00090078004f04be00000006003e
:101b2000fe874700889fbe008a9fbe008c9fbe0034
:101b30008e1f7800f0b79f000107780082bf9f00da
:101b40000000eb00a0b79f009f0237008006eb006b
:101b500050c2b30080cf5000090032000100fb00ea
:101b6000ffb09700a7ff0700e10f40009602320088
:101b7000afb097008100e800a1b79f009202370044
:101b80009e407800d0c2b30080cf50000c003200dd
:101b900007003c006d40500080cf50000a0032002a
:101ba0006b40400080cf50000e003a000800370024
:101bb00000c3b30080cf50000a003a00060037008f
:101bc0000d30a000050037000d00a0000300370015
:101bd0000d10a000010037000d20a0000e07e80046
:101be000e7ff37000d18a300010032000d00a1002f
:101bf0000d38a300010032000d20a1000100fb0000
:101c000002fd2f0002004000e90f50000e003e00d0
:101c10000002eb00c4b79f0082017800cfb29700aa
:101c20006a28b9001e01fb000001410003014100c8
:101c3000c2b79f005e00fb0003004000e90f5000a8
:101c40000b003e00f5ff37000006eb00ccb79f000d
:101c5000a0c2b30080cf500005003a000fb8970033
:101c6000c000780080bf9f00c1b79f000e07e8004a
:101c70000001eb00b2b79f00e0c2b3009e4f10001e
:101c800018003a000de0a0008e00e800644050000b
:101c9000914f100002003200010778000c0037005d
:101ca0000fba9700c402780084bf9f00b5b79f00a9
:101cb0000e87e8000b0037003fb697006a60b90056
:101cc0000000410003004000b0b79f000e07e8008d
:101cd0001e01fb0003fd2f0003004100e90f50002f
:101ce000f5ff3600be407800e1d79f00c0c6b300c4
:101cf00080cf5000220032000f003c0069405000ad
:101d000080cf50007700320004003c000104e00066
:101d1000310232006b4050000f00370040c6b30064
:101d200080cf5000930032006540400080cf5000cb
:101d30008b003a008f00370030c7b30080cf5000cf
:101d40001a00320007003c006440500080cf500071
:101d5000110032000040e80080cf500080003a00bf
:101d60000f00370050c7b30080cf50008000320012
:101d70006340400080cf500079003a0009003700ee
:101d8000000028000d48a30001003a0000012000d7
:101d900080867600d3ff37000d60a0007500370005
:101da0000d50a0000d70a000720037008fb8970092
:101db0004100780081bf9f00000478000000e0002f
:101dc00001003a00c85724008004eb0001003700ee
:101dd0008104e80089007800088044001004e000d5
:101de000fbff3a003fb197000200e0000300320021
:101df000890f510001003100820478000002eb00dd
:101e0000e4af9f00cfb29700898f520002003600e6
:101e100009805200e0af9f004368de00e1066000e9
:101e20001b003a000d06780009003700ffb097004c
:101e300000022000f3fe0700e10f40000300320023
:101e40002fb097000000e800a0b79f000c06e80044
:101e5000efa89700810f5600f4ff3a000081eb00d5
:101e6000e2af9f000a003700880078003100fb00d5
:101e700001047800ffb09700e2fe0700e10f400088
:101e8000030032002fb297000402e800a4b79f00bd
:101e90000900e90080047800e10f4000f2ff3a00f9
:101ea0000006eb000d00e0000a003a00c601370012
:101eb000ffb0970000022000d2fe0700e10f4000b3
:101ec00003003200afb297008502e800a5b79f007b
:101ed0000c06e8006fa89700800f5600f4ff3a0048
:101ee000b90137008fb897004100780081bf9f008b
:101ef000cf80de0001017800820178000205be007b
:101f00000004be000203be000002be004822de0044
:101f1000482edd0004027600e4d79f000d48a300a0
:101f20000a0032000404e00008003200e14f4200e1
:101f30000600320071fd2f00018047000448780040
:101f4000184098002900200002003700f0d79f00b9
:101f50001900200072fd2f0002844700a1ff370006
:101f600064fd2f0004844700190020009dff370006
:101f70000d0cb3000d007800000cb20028003a00f0
:101f80000d00e00005003d008fba97004505be003a
:101f90004504be0085bf9f00140037000d48a30014
:101fa0000b0032000fbe97004c00be008cbf9f009c
:101fb0004f89de00cf91de000002be0002037800f0
:101fc000820378000605be000404be000700370047
:101fd0008fb897004100780081bf9f00000478000f
:101fe000cfc4de00090578008a057800e00f5400b0
:101ff000e08f5c00e00f5d00e08f5d001f003d00a2
:102000003d00b3006000b8006011b8000804500043
:10201000898458000a0559008b855900170037003c
:102020000d00e00005003d000fb997004205be001d
:102030004204be0082bf9f00100037000d48a3007d
:10204000070032000fba97004400be0084bf9f0013
:102050006011b8000205be000004be000700370092
:102060008fba97004500780085bf9f000004780074
:10207000090020000a0020000b0020003fb6970056
:102080000c00e00007003a00e00f5400e08f5c0015
:10209000e00f5d00e08f5d0002003a0010002000bc
:1020a000b0b79f008d007800010cb200e1b79f002f
:1020b00000042000808f50003000320003003c00fc
:1020c0000100e00008003200400037000008200056
:1020d0006fb19700800f510014003200000c2000f7
:1020e000800f510039003a0014c0b300c54d2400e0
:1020f0000b0037000400fb004300dd00050040003a
:102100005001be004000be000040e10001c8e100f7
:1021100002d0e10003d8e1002b0039000442e800be
:10212000f44f5200f3ff3a0027003700000120006f
:10213000010020006011b80014c0b3000040e100ad
:1021400001c8e10002d0e10003d8e1001e0039001f
:10215000450020000000d0008180d2000281d20022
:102160008381d2008502e900faff3a000442e800c8
:10217000f04f5200f1ff3a001300370080002000ba
:10218000010020006011b80014c0b3000040e1005d
:1021900001c8e10002d0e10003d8e1000a003900e3
:1021a0003c0020000000d0008180d2000281d200db
:1021b0008381d2000c06e900faff3a000442e800ed
:1021c000f54f5200f1ff3a00e4d79f00efd097009f
:1021d0000100fb003fb19700820f500002003d005c
:1021e000e2d79f00040037003fb29700800f5200f3
:1021f00001003d00b0b79f00cfb297000500e0009e
:102200000400320063806600020032008502e900ab
:10221000c5b79f000de8a3000b0032004fb6970032
:102220003fb09700800f560003003c008000eb0099
:10223000c1b79f00040037004fb197003fb297002d
:1022400004015100c2b79f00efd297000500fb00c8
:102250000006eb00dcaf9f00cfb09700808f5000ee
:102260000200340000805000d0af9f000d28a30072
:1022700037003200e18066000d18a3000c00320028
:10228000d00220000100e00001003a000080e900d7
:10229000ffb09700dbfd0700e10f40000e003200a9
:1022a0002fb197000201e800a2b79f000a00370093
:1022b0000100e00008003200ffb09700000220009b
:1022c000d0fd0700e10f4000030032002fb297005d
:1022d0000402e800a4b79f00dfaa97000500e00011
:1022e0000f0032000006eb00ffb097000003200053
:1022f000c4fd0700e10f4000030032002fb097003b
:102300000000e800a0b79f000c06e800dfa89700d7
:10231000810f5600f4ff3a000001eb00d2af9f009e
:102320003fb29700c320dd00404d24008080400074
:1023300091b79f004220dd006400500080b79f00ed
:102340006320b900f0af9f0063065000840037009f
:10235000dfaa97000500e0001100320068806600e7
:102360000f003a0000067800ffb09700000220003e
:10237000a4fd0700e10f4000030032002fb09700da
:102380000000e800a0b79f000c06e800dfa8970057
:10239000810f5600f4ff3a000001eb00d2af9f001e
:1023a000e18066000d18a3000c003200d00220006e
:1023b0000100e00001003a000080e900ffb0970052
:1023c00090fd0700e10f4000d5ff32002fb29700cb
:1023d0000402e800a4b79f00d1ff37000100e0002d
:1023e000cfff3200ffb097000002200085fd0700fc
:1023f000e10f4000caff3200afb297008502e8004b
:10240000a5b79f00c6ff370000042000efb097007b
:10241000808f50003100320003003c000100e000da
:10242000080032003e003700000820006fb197001e
:10243000800f510011003200000c2000800f51006d
:1024400037003a001fb097003002be002003be00e4
:102450000800be000a01be0034f90700a4002000f5
:10246000050020006033b80037f9070004c3b3004b
:1024700004424000e4d79f0029003700355824006b
:10248000d5b79f000d58a30002003a004059240020
:10249000d0b79f0014002000050020006033b80072
:1024a0008fb097008100e900050033000402d000de
:1024b0008582d2000683d2008783d200f9ff3700dd
:1024c0000800be000a01be0018f907006f00600096
:1024d0005fb19700624078001000370014002000c0
:1024e000050020006033b8000c0078000000e9000f
:1024f000050033000402d0008582d2000683d2009a
:102500008783d200f9ff37000800be000a01be0031
:1025100006f90700674060000043b000e0d79f0065
:10252000efd097000100fb00ffb0970035fd0700da
:10253000e10f4000030032002fb197000201e800d4
:10254000a2b79f001fb297006802520094b79f0085
:102550008fb29700e482520085b79f006306560051
:10256000d0ff2f003fb197000090b9007faa9700dd
:102570000000420063005000800f5600a2ff3a00a6
:102580000d38a30010003200dfaa97000500e0001c
:102590000d0034000006eb00ffb0970000022000a1
:1025a00018fd0700e10f4000030032002fb0970034
:1025b0000000e800a0b79f000c06e800dfa8970025
:1025c000810f5600f4ff3a00be407800e1d79f002b
:1025d0000104e0005dfd3a002fb097004f0778003e
:1025e0004f06be004f05be004f04be00ef01b10014
:1025f00000000600889fbe008a1f78000005780052
:10260000810478000004eb00010037000804e800b2
:1026100068407d000004e000050032008000fb00ff
:1026200009007800190007000000e000f7ff3a00f9
:10263000080078004f0578004f04be000000060037
:10264000889fbe008a1f780000057800810478000a
:102650000004eb00010037000804e80068407d003a
:102660000004e000050032008000fb000900780053
:10267000060007000000e000f7ff320008007800c5
:102680004f0578004f04be0000000600104178009e
:10269000814f5100040032000000e8000204e00015
:1026a000faff3a000000eb00000006000200fa000a
:1026b000889fbe00a0ff9f0001047800b100900039
:1026c000810478000904b200020032000000fb001f
:1026d000360037000118a30005003a000103b300db
:1026e00031049800190498000080eb002f00370097
:1026f000580090000000e00006003a0048009000fa
:1027000012002000e6805700a3f707001904980084
:1027100024003700280090000000e00008003a0084
:10272000205d240020049800000c78002000200088
:1027300050049800100498000130a0003104980063
:1027400018019000a80090004800900092f7070040
:1027500028009000000c78000080eb001004980026
:1027600018007800aff8970001587800000c780046
:102770002ff89700ea4f50000a003a003800900006
:102780000088a3000700320018019000a800900004
:102790004800900080f7070019049800a8009000f6
:1027a000010c7800aff897000100fb004f04be0059
:0827b0000080fa0000000600a1
:020000040000fa
:0200000401f009
:04000000ffff0000fe
:020000040000fa
:0200000401f009
:04000800ffff0000f6
:020000040000fa
:0200000401f009
:04000c00f9ff0000f8
:020000040000fa
:0200000401f009
:040010009bff000052
:020000040000fa
:0200000401f009
:040014007fff00006a
:020000040000fa
:0200000401f009
:04001800ffff0000e6
:020000040000fa
:0200000401f009
:04001c00dfff000002
:020000040000fa
:10000800ac020000ac020000ac020000ac02000030
:10001800ac020000ac020000ac020000ac02000020
:10002800ac020000ac020000ac0200007e880000b8
:10003800ac020000ac020000ac020000a089000085
:10004800027a0000ac020000ac020000b089000097
:10005800ac020000ac020000ac020000ac020000e0
:10006800ac020000ac020000ac020000ac020000d0
:10007800ac020000ac020000ac020000ac020000c0
:10008800ac020000ac020000ac020000ac020000b0
:10009800ac020000ac020000ac020000ac020000a0
:1000a800ac020000ac020000ac020000ac02000090
:1000b800ac020000ac020000ac020000ac02000080
:1000c800ac020000ac020000ac020000ac02000070
:1000d800ac020000ac020000ac020000ac02000060
:1000e800ac020000ac020000ac020000ac02000050
:1000f800ac020000ac020000ac020000ac02000040
:10010800ac020000ac020000ac020000ac0200002f
:10011800ac020000ac020000ac020000ac0200001f
:10012800ac020000ac020000ac020000ac0200000f
:10013800ac020000ac020000ac020000ac020000ff
:10014800ac020000ac020000ac020000ac020000ef
:10015800ac020000ac020000ac020000ac020000df
:10016800ac020000ac020000ac020000ac020000cf
:10017800ac020000ac020000ac020000ac020000bf
:10018800ac020000ac020000ac020000ac020000af
:10019800ac020000ac020000ac020000ac0200009f
:1001a800ac020000ac020000ac020000ac0200008f
:1001b800ac020000ac020000ac020000ac0200007f
:1001c800ac020000ac020000ac020000ac0200006f
:1001d800ac020000ac020000ac020000ac0200005f
:1001e800ac020000ac020000ac020000ac0200004f
:0801f800ac020000ac020000a3
:020000040000fa
:10020800ac020000ac020000ac020000ac0200002e
:10021800ac020000ac020000ac020000ac0200001e
:10022800ac020000ac020000ac0200007e880000b6
:10023800ac020000ac020000ac020000a089000083
:10024800027a0000ac020000ac020000b089000095
:10025800ac020000ac020000ac020000ac020000de
:10026800ac020000ac020000ac020000ac020000ce
:10027800ac020000ac020000ac020000ac020000be
:10028800ac020000ac020000ac020000ac020000ae
:10029800ac020000ac020000ac020000ac0200009e
:1002a800ac020000ac020000ac020000ac0200008e
:1002b800ac020000ac020000ac020000ac0200007e
:1002c800ac020000ac020000ac020000ac0200006e
:1002d800ac020000ac020000ac020000ac0200005e
:1002e800ac020000ac020000ac020000ac0200004e
:1002f800ac020000ac020000ac020000ac0200003e
:10030800ac020000ac020000ac020000ac0200002d
:10031800ac020000ac020000ac020000ac0200001d
:10032800ac020000ac020000ac020000ac0200000d
:10033800ac020000ac020000ac020000ac020000fd
:10034800ac020000ac020000ac020000ac020000ed
:10035800ac020000ac020000ac020000ac020000dd
:10036800ac020000ac020000ac020000ac020000cd
:10037800ac020000ac020000ac020000ac020000bd
:10038800ac020000ac020000ac020000ac020000ad
:10039800ac020000ac020000ac020000ac0200009d
:1003a800ac020000ac020000ac020000ac0200008d
:1003b800ac020000ac020000ac020000ac0200007d
:1003c800ac020000ac020000ac020000ac0200006d
:1003d800ac020000ac020000ac020000ac0200005d
:1003e800ac020000ac020000ac020000ac0200004d
:0803f800ac020000ac020000a1
:020000040000fa
:1027b8000000000000000000000000000000000011
:1027c80000000000000000000101000001010000fd
:1027d80001010000010100000101000001010000e9
:1027e80001010000010100000101000001010000d9
:1027f80001010000010000000000000001f80000d5
:10280800efef0000f7f70000f7f7000003130000f0
:102818001c22000024240000262000001c140000b4
:1028280002f10000e4e00000dede0000dede000071
:10283800e2e70000f40a00000e0e00000e1300008c
:10284800171700000b03000000140000232d0000e0
:10285800383e00003e370000322d0000251a0000e7
:102868000f020000f4e90000dec80000bfc8000045
:10287800dbe90000f4ff0000091400001e28000036
:10288800323a0000413200002d23000019120000e6
:102898000701000000000000000000000000000028
:1028a8000000000000000000000000000000000020
:1028b800000000000000000001010000010100000c
:1028c80001010000010100000101000001000000f9
:1028d8000000000000000000fff90000ebdd000030
:1028e800cfd50000dae40000e4e40000e4ee0000e4
:1028f800f8060000060600000707000007070000aa
:102908000707000007070000070700000b1000007a
:1029180012150000151400000d06000001f5000056
:10292800f4f3000003100000182200002323000025
:10293800232900002f36000036360000362b000011
:10294800200d0000fae80000d5c40000c4c400004f
:10295800beb90000c3ce0000d9e40000f7fd0000b6
:10296800000000000000000000000000000000005f
:10297800000000000000000000000000010100004d
:102988000101000001010000010100000101000037
:102998000101000001010000010100000101000027
:1029a80001010000010100000100000000ff00001b
:1029b800eedf0000cfc90000d0da0000dada00004c
:1029c800dcde0000ebfb00000b130000130f00001f
:1029d80009000000f2e50000dada0000dada0000a7
:1029e800e4ee0000f8030000152400002424000091
:1029f80026270000342e00002411000003070000e1
:102a08000b1100001f2b00002d2d00002d300000a1
:102a1800343a00003e3c00002e1c00000dfd000072
:102a2800f0e20000d6cb0000cbcb0000cbcb0000ff
:102a3800cbcb0000cbcc0000cccb0000cbcc000033
:102a4800ccd00000e0eb0000f8000000000000001f
:102a5800000000000000000000000000000000006e
:102a6800000000000000000000010000010100005b
:102a78000101000001010000010100000101000046
:102a88000101000001010000010100000101000036
:102a98000101000001010000010100000101000026
:102aa8000101000001000000f5ea0000e0d6000086
:102ab800cbc90000d4de0000dede0000dee100004d
:102ac800eaf70000041600001d1800000bfe0000c5
:102ad800f4e90000e9e90000e9e90000f4ff00007a
:102ae800141c0000202300001a0c0000f9e9000063
:102af800dcdc0000dcdc0000dcdc0000dae80000e4
:102b0800f6fe000000030000060900000c1a000091
:102b1800263000003030000031300000383d000021
:102b28003c350000231100000805000004030000e4
:102b3800030300000303000003030000fff9000083
:102b4800efe50000d2c70000c5cb0000d3da0000d3
:102b5800dada0000dada0000e3ee0000fa0000003a
:102b6800000000000000000000000000000000005d
:102b7800000000000000000000000000000000004d
:102b88000101000001010000010100000101000035
:102b98000101000001010000010100000101000025
:102ba8000101000001010000010100000101000015
:102bb8000101000001010000010100000000000007
:102bc800000000000b160000202b0000364100001a
:102bd800341e00001e1e00001c1c000018140000fb
:102be8000d010000f4e20000d8d30000d3d30000a8
:102bf800d3e30000edf8000003070000070700001a
:102c08000707000007070000070700000707000084
:102c1800070700000707000007030000f7ec0000a3
:102c2800f7f90000fbff0000fefd0000fbf80000c4
:102c3800f4f00000eae80000e8e80000e7e7000038
:102c4800e7e70000e7e70000e7e70000e7e8000043
:102c5800e8e80000fa0c00001f31000044450000bd
:102c680045450000453b0000301d00000af9000002
:102c7800e8d70000c5c50000c5c50000c3b90000fd
:102c8800b9ca0000ddeb0000f900000000000000f8
:102c9800000000000000000000000000000000002c
:102ca800000000000000000000000000000100001b
:102cb8000101000001010000010100000101000004
:102cc80001010000010100000101000001010000f4
:102cd80001010000010100000101000001010000e4
:102ce80001010000010100000100000000000000d7
:102cf8000b170000212b0000333700002d220000a5
:102d080022220000222200002221000010ff0000e1
:102d1800efe50000e5e50000e4e40000e5e500007b
:102d2800e5e50000e5e40000f70a000016190000d8
:102d38001c1c000019070000faea0000dbdb000099
:102d4800dbdb0000dcdc0000cece0000dde80000ac
:102d5800f3fe000001040000070b00001727000025
:102d680033350000353500003536000036350000b3
:102d7800353500003434000034340000362c0000af
:102d88002110000004000000fb000000141e0000d9
:102d980005f30000e8dc0000cdc30000bcc2000061
:102da800ccd00000d4d40000d4d40000d8e800006f
:102db800f0f60000fc000000000000000000000029
:102dc80000000000000000000000000000000000fb
:102dd80000000000000000000101000001010000e7
:102de80001010000010100000101000001010000d3
:102df80001010000010100000101000001010000c3
:102e080001010000010000000000000000010000b6
:102e1800131e00002a3a00003d3800002e2a000048
:102e28002a2a0000232100002112000001e50000e9
:102e3800e5e10000dad60000dae00000e7f400007f
:102e4800051400001f1f00001e14000007f40000f6
:102e5800e8dd0000d3ce0000c8c80000c4d40000dc
:102e6800e4f00000fcff000003030000040f000072
:102e78001e2400002a2d00002d2d00002d340000f6
:102e8800373d00003e4300002a1a000010060000eb
:102e9800f4e20000d2c00000c8d20000e0ea00005e
:102ea800f40300001812000006f70000f7f700000e
:102eb800f7f20000eede0000e1e50000f700000098
:102ec80000000000000000000000000000000000fa
:102ed80000000000000000000000000000000000ea
:102ee80000000000000000000101000001010000d6
:102ef80001010000010100000101000001010000c2
:102f080001010000010100000101000001000000b2
:102f18000000000000000000fff30000e7db0000f5
:102f2800cfc30000bfba0000c3cd0000d7d7000050
:102f3800d7d70000dbdb0000dbec0000f600000068
:102f48000a1400002626000026260000231f000081
:102f5800160e000008020000fbf30000f4f4000065
:102f6800f4f10000f1e60000d8d80000d8e800002d
:102f7800f401000002030000060900000c1900001b
:102f880027300000343400003434000034340000aa
:102f98003434000034340000343400003434000089
:102fa80034340000343000002513000001f3000021
:102fb800e2d40000c5c60000c5c50000c2c20000ba
:102fc800b8c20000ceda0000ebf7000000000000f5
:102fd80000000000000000000000000000000000e9
:102fe80000010000010100000101000001010000d2
:102ff80001010000010100000101000001010000c1
:1030080001010000010100000101000001010000b0
:1030180001010000010100000101000001010000a0
:103028000101000001010000010100000101000090
:103038000000000000000000000000000000000088
:10304800fbf60000eaee0000f40a0000121a000085
:10305800202000001b0e0000ffee0000e4de000050
:10306800dae10000e8f20000ff0900001420000087
:1030780022260000221c000012ff0000f6e70000d4
:10308800ddd60000d7dd0000e6f3000005050000ee
:10309800050500000000000000000000000000001e
:1030a8000000000000000000000000000002000016
:1030b80002080000080a00000c100000142000009c
:1030c8002e3800003f4600003e3800002e21000048
:1030d800170e00000705000001fd0000f7ed0000d5
:1030e800ded50000cec70000c0ba0000ced2000076
:1030f800deed0000f6fb000000000000000000000c
:1031080000000000000000000000000000000000b7
:1031180000000000000000000000000000000000a7
:103128000000000000000000000000000000000097
:103138000000000000000000000100000101000084
:10314800010100000101000001010000010100006f
:10315800010100000101000001010000010100005f
:10316800010100000101000001010000010100004f
:1031780000000000020800000b0e0000131f0000f2
:103188002b3700002e2a00002a26000026260000e1
:103198002420000011000000f2e40000dfdf00003e
:1031a800e0e90000f90b0000181d00001e1f0000d8
:1031b800201f0000180f000000ef0000e6e60000e6
:1031c800e6e60000e6e00000dcd20000cdda000010
:1031d800eafe00000e180000222d00002d2c000031
:1031e8001e11000009090000090900000808000074
:1031f80000f00000e4f40000051500001f2900009d
:10320800373a0000382f00002512000005f80000aa
:10321800e6d90000c9c40000c9c90000cee2000018
:10322800e2e20000e2e20000e7ec0000f5fa00004c
:103238000000000000000000000000000000000086
:103248000000000001010000010100000101000070
:103258000000000000000000000100000101000063
:10326800010100000101000001010000010000004f
:103278000000000000000000000000000000000046
:10328800ffff000001000000000000000101000035
:10329800010100000202000002ff0000ffff000021
:1032a8000000000000000000000000000101000014
:1032b8000101000000000000000000000000000004
:1032c800ff0000000101000000150000292e000089
:1032d8002e2e00001d1900001919000012120000fe
:1032e8000afc0000f1e50000e5e50000e5e4000067
:1032f800e4e40000d9cf0000cfcf0000cfcf00001a
:10330800cfd80000e5f20000fe0000000000000039
:1033180000000000000000000000000000000000a5
:103328000000000000000000000000000000000095
:103338000000000000000000000000000000000085
:10334800000000000101000001010000010100006f
:10335800010100000101000001010000010100005d
:103368000000000000000000000000000000000055
:10337800ff080000121d0000242c0000353e00004c
:103388003e3e00003c300000241c00001a1a0000d9
:103398001a1a00001b1b00001b180000140b000069
:1033a80004000000fcf90000f5ef0000e9e400006b
:1033b800dddd0000dddd0000dcdc0000dccd000030
:1033c800ced00000d5da0000e1f10000ff000000d7
:1033d800060c000018250000323f00004c59000080
:1033e800666800006a6000005555000055550000e9
:1033f80051510000514600003b280000160c000007
:1034080002f80000edda0000cab90000a9a900001e
:10341800a9a90000a8a80000a8ad0000b9c500002f
:10342800d1dd0000ebfb0000000000000000000000
:103438000000000000000000000000000000000084
:10344800000000000101000001010000010100006e
:10345800010100000101000001010000000000005e
:1034680000000000000000000000000000ff000055
:10347800121f00002d3100003232000032320000ed
:103488003333000033340000332f00002b270000b3
:1034980020200000202000001f1f00001f13000034
:1034a80006fc0000f1f20000f3f40000f6f800005a
:1034b800fafe000001fd0000f5ed0000e0d7000075
:1034c800d7d70000d7d60000d6d60000cfc5000059
:1034d800bcb40000aea40000a4a40000a4a6000090
:1034e800a6a60000a09a0000a1a90000b4bf000091
:1034f800cad70000e3ef0000fb0000000000000056
:1035080000000000000000000000000000000000b3
:10351800000000000000000001010000010100009f
:10352800010100000101000001010000010100008b
:1035380001010000010000000000000000fc000084
:10354800f0ea0000e4ee0000ff1100001111000095
:1035580011130000131300001b1e00001e1a0000a8
:10356800150d0000090800000b11000011130000e0
:10357800131300001320000029290000281b000055
:103588000cff0000f0e30000d6c60000bdb8000044
:10359800b8b80000b8b70000b7b70000b9c200005b
:1035a800cacd0000cdcd0000c7be0000b7b80000ee
:1035b800b8b60000b9b90000b9bc0000cad4000010
:1035c800dff00000ff000000000000000000000025
:1035d80000000000000000000000000000000000e3
:1035e80000010000010100000101000001010000cc
:1035f80001010000010100000101000001010000bb
:1036080001010000010100000101000001010000aa
:10361800010100000101000001010000010100009a
:10362800010100000101000001010000010100008a
:10363800010100000101000001010000010100007a
:10364800010100000101000001010000010100006a
:10365800010200000a120000130a00000000000026
:103668000000000000000000fffc0000f1e6000080
:10367800dbd00000c1b30000aaa70000a4a400008a
:10368800a4ac0000b3b90000c0c40000c8d7000053
:10369800e6f10000ffff0000ffff0000ffff000051
:1036a8000c180000252d0000353c0000444f000098
:1036b800565b00005b5c0000574e0000453a000076
:1036c8002e2600001e12000008fe0000fdfd00006e
:1036d800fdfd0000ffff0000f8f90000ff030000f7
:1036e800090f00001b2800003434000034340000a7
:1036f80034340000383b000047560000575800009b
:103708004c4400003a32000029200000160700004f
:10371800f9f10000e8e00000d7c80000bdb60000dd
:10372800b3b30000b3b30000b3b30000bcc60000dd
:10373800cfd60000dee60000effe00000b1a000006
:10374800232c00003b4300004a4f0000504c00006f
:10375800483e0000352700002727000027270000e3
:10376800262600001c0d00000600000000000000d6
:103778000000000000000000000000000000000041
:103788000000000000000000000000000000000031
:10379800000000000100000001000000010000001e
:1037a800010000000100000001000000010000000d
:1037b80001000000010000000100000001000000fd
:1037c80000000000000000000000000000000000f1
:1037d80000000000000000000000000000000000e1
:1037e80000000000000000000000000000000000d1
:1037f80000000000000000000000000000000000c1
:1038080000000000010000000100000001000000ad
:10381800010000000100000001000000000000009d
:103828000000000000000000000000000000000090
:103838000000000000000000000000000000000080
:103848000000000000000000000000000000000070
:10385800000000000000000001000000010000005e
:10386800010000000100000001000000010000004c
:10387800010000000100000001000000000000003d
:103888000000000000000000000000000000000030
:103898000000000000000000000000000000000020
:1038a8000000000000000000000000000000000010
:1038b80000000000000000000000000001000000ff
:1038c80001000000010000000100000001000000ec
:1038d80001000000000000000000000000000000df
:1038e80000000000000000000000000000000000d0
:1038f800ffff0000ffff0000ffff0000ffff0000c8
:10390800ffff0000010000000100000001000000ae
:10391800010000000200000001000000010000009a
:103928000100000001000000010000000300000089
:1039380001000000090000003400000055000000ec
:1039480076000000a8000000b5000000c2000000da
:10395800bf000000b4000000b4000000b400000084
:10396800b4000000b5000000b5000000b50000007c
:10397800aa000000a10000009600000096000000c8
:1039880096000000960000009500000095000000d9
:10399800950000006e000000430000000c000000cd
:1039a800dfff0000b1ff000098ff000082ff000069
:1039b8006aff00006aff00006aff00006aff00005b
:1039c8006aff00006aff00006aff000061ff000054
:1039d80054ff00004aff00004aff00004aff0000b1
:1039e8004aff000049ff000049ff000049ff0000ae
:1039f8003fff000032ff000035ff000046ff0000d7
:103a08005eff000094ff0000c8ff0000ffff0000f9
:103a1800000000000000000000000000000000009e
:103a2800feff0000feff0000feff0000ffff000099
:103a3800ffff00000000000002000000020000007c
:103a48000200000003000000030000000300000063
:103a58000400000002000000feff0000ffff00005d
:103a680021000000480000007600000096000000d9
:103a780096000000960000009600000098000000e4
:103a880098000000a7000000b3000000d800000064
:103a9800d7000000d7000000d6000000d6000000c4
:103aa800d5000000d5000000e6000000ea00000094
:103ab800d7000000c5000000b30000007f00000030
:103ac800570000002f0000000e000000000000005a
:103ad80000000000000000000000000000000000de
:103ae800000000000000000001000000ffff0000cf
:103af80000000000000000000000000000000000be
:103b080001000000010000000100000001000000a9
:103b18000200000000000000020000000100000098
:103b28000400000004000000010000000100000083
:103b3800010000000100000000000000000000007b
:103b480000000000ffff000000000000010000006e
:103b5800010000000100000001000000000000005a
:103b68000000000000000000ffff0000efff000061
:103b7800cbff0000a9ff000084ff000055ff0000f4
:103b88002bff00002fff00004cff00004cff00003f
:103b98004cff00004cff00004cff00004cff0000f1
:103ba8004cff000055ff000061ff000068ff0000a7
:103bb80069ff000069ff000069ff00006cff00005a
:103bc8006cff00006cff00009aff0000c2ff0000bd
:103bd800ebff0000000000000000000000000000f3
:103be80000000000000000000000000000000000cd
:103bf80000000000000000000100000001000000bb
:103c080001000000010000000100000001000000a8
:103c18000100000001000000010000000000000099
:103c2800000000000000000000000000000000008c
:103c3800000000000000000000000000000000007c
:103c4800000000000000000000000000000000006c
:103c5800000000000000000000000000000000005c
:103c6800000000000000000000000000000000004c
:103c7800000000000000000000000000000000003c
:103c8800000000000000000000000000000000002c
:103c9800000000000000000000000000f6ff000027
:103ca800f6ff0000f6ff0000050000000a00000013
:103cb800140000001d00000047000000660000001e
:103cc8006e0000007b0000008700000091000000eb
:103cd8009e00000091000000650000004600000002
:103ce80020000000140000000a000000f6ff000099
:103cf800f6ff0000000000000000000000000000c7
:103d080000000000000000000000000000000000ab
:103d1800000000000000000000000000010000009a
:103d28000100000001000000010000000100000087
:103d3800000000000000000000000000000000007b
:103d4800000000000000000000000000000000006b
:103d5800000000000000000000000000000000005b
:103d6800000000000000000000000000000000004b
:103d7800000000000000000000000000000000003b
:103d8800000000000000000000000000000000002b
:103d9800000000000000000000000000000000001b
:103da800000000000000000000000000000000000b
:103db800f6ff0000f6ff0000f6ff0000f6ff000027
:103dc800fbff0000fbff00000a00000014000000d9
:103dd80031000000500000005000000050000000ba
:103de800500000004f0000004f0000004f0000008e
:103df80032000000140000000a000000f6ff000076
:103e0800f6ff0000f6ff00000000000000000000c0
:103e1800000000000000000000000000000000009a
:103e2800000000000000000000000000000000008a
:103e3800000000000000000000000000000000007a
:103e4800000000000000000000000000000000006a
:103e58000000000000000000000000000101000058
:103e68000101000001010000010100000101000042
:103e78000101000001010000010100000101000032
:103e88000101000001010000010100000101000022
:103e9800000000000000000000000000000000001a
:103ea800fe0e00001a1b00001b1b00001b1900005f
:103eb8001b1b00000ffe0000f4e90000e5e2000013
:103ec800dfdd0000e2ed0000f90500001018000039
:103ed800181900001919000019190000191a000012
:103ee8002626000026260000272900002a2f000089
:103ef800394000003b350000281a0000fffa000096
:103f0800ff0900000b0b00000b0c00000d0d00005a
:103f1800161800001511000007fb0000eedb00007a
:103f2800d0ca0000cbcb0000d6de0000ef000000b6
:103f38000f19000015f90000e6d50000c7c70000fa
:103f4800c7c70000c6c60000c6be0000bcca000045
:103f5800d7e50000f0fb00000000000000000000b2
:103f68000000000000000000000000000000000049
:103f78000000000000000000000000000000000039
:103f88000101000001010000010100000101000021
:103f98000101000001010000010100000101000011
:103fa8000101000001010000010100000101000001
:103fb80001010000010100000101000001010000f1
:103fc80001010000010100000101000000000000e3
:103fd8000b0f000013130000130d000007f700007b
:103fe800eae60000e2e20000e2e20000e1e10000af
:103ff800e1e20000e1e00000e0e00000e0e00000b5
:10400800e0e00000e0e00000e0e00000e0e00000a8
:10401800e1e10000e1e60000f6070000181c0000de
:1040280020230000201a00000efe0000f2e6000027
:10403800e2e20000e2e20000e3e30000e3e6000061
:10404800e9f50000fd0d0000182300002e390000de
:1040580046540000635d00005349000049490000d0
:104068004948000048480000352200000f030000be
:10407800f6ec0000e1d70000cdc30000c3c3000088
:10408800c3cd0000d7e10000ecf8000009170000dc
:104098001b1500000b010000efe20000d1c4000076
:1040a800c4c90000dbe30000e3e30000e3e4000030
:1040b800e4e40000effb0000fd0000000000000049
:1040c80000000000000000000000000000000000e8
:1040d80000000000000000000101000001010000d4
:1040e80001010000010100000101000001010000c0
:1040f80001010000010100000101000000000000b2
:10410800fd040000142500002e2500001c1c0000e2
:104118001c1c00001a1a00001a1a00000efe0000eb
:10412800ede30000e1e20000e4ec0000fa0c00001e
:104138001e1e00001e1e00001f2000002626000074
:104148001d1400000cff0000f1e40000e4f300007f
:10415800fd00000000000000020200000202000052
:104168000a0c000014070000fbea0000e0d600007b
:10417800c7bb0000c1c90000d3d30000d3d30000df
:10418800d3d30000d7e30000f0f8000000000000df
:104198000000000000000000000000000000000017
:1041a8000000000000000000000000000000000007
:1041b80001010000010100000101000001010000ef
:1041c80001010000010100000101000001010000df
:1041d80001010000010100000101000001010000cf
:1041e80001010000010100000101000001010000bf
:1041f80001010000010100000000000000000000b3
:10420800eeeb0000e7e90000ecfb000008150000f9
:104218001a1a00001a1a00001b1b00001b1b0000c2
:104228001a1a00001a1a00001a1a00001a1a0000b6
:104238001a1a00001a1a0000191900001a1a0000a8
:1042480010000000f0df0000d7d60000d8e1000021
:10425800ecf80000081200001818000018180000f8
:104268001a1a000020240000282000001509000068
:1042780001120000202e00003843000050500000ba
:10428800503f00003f3f00003f3f00003f3f00001d
:104298002e1d00000d000000f0e10000d2c100005a
:1042a800b9b90000b9b90000c3cd0000dae80000d0
:1042b800f80400000e0e000004f20000dfd0000039
:1042c800cebf0000bab20000cedd0000dddd000088
:1042d800dddd0000e2e10000ebf50000ff02000078
:1042e80005000000000000000000000000000000c1
:1042f80000000000000000000000000000000000b6
:10430800010100000101000001010000010100009d
:10431800010100000101000001010000010100008d
:10432800010100000101000001010000010100007d
:10433800010100000100000000ff0000f5ea000094
:10434800dfd30000cbdb0000dbdb0000dbdb0000a1
:10435800dbdb0000ecfc00000c1e0000262a00003d
:104368002619000014080000f5e30000ddda00005b
:10437800dadc0000e4f00000010f00001d1d000061
:104388001d1d00001e1e00001e2300001f1500003a
:104398000b030000fffb0000f9f70000e8e600004f
:1043a800e6e60000e6e60000e6e60000e6e60000d5
:1043b800e6e60000e6f60000050f0000191e000002
:1043c80019100000f8ed0000e1d10000c7bf00009f
:1043d800b5b50000bfc90000d3d30000d3d3000097
:1043e800d3d80000e1ed0000f90000000000000053
:1043f80000000000000000000000000000000000b5
:1044080000000000000000000101000001010000a0
:10441800010100000101000001010000010100008c
:10442800010100000101000001010000000000007e
:104438000000000000000000000000000000000074
:104448000000000000000000000000000101000062
:10445800010100000101000001010000010100004c
:10446800000200000d180000272b00002f2000007c
:1044780020200000201f00001f1f0000190e000050
:1044880003fe0000fcfc0000fcfb0000fbfb00003e
:10449800fbfb0000fbfb0000fbfc0000fcfc000039
:1044a800f7ea0000ded50000ccca0000c8c600004c
:1044b800d0e30000e3e30000e3e50000e5e50000e9
:1044c800f00300000f1a00001a1a00001a1c00005e
:1044d8001c1c0000291700000b000000fefb000058
:1044e80009140000202f00002f2f00002f3000009b
:1044f8003030000030370000373700003732000016
:1045080028000000ecc90000bdb20000b2b20000f3
:10451800b2b00000b0b00000a7a40000abb7000024
:10452800c3d00000ddea0000fa000000000000002f
:104538000000000000000000000000000000000073
:10454800000000000000000000000000fbee00007a
:10455800f40000000000000000000000000000005f
:104568000000000000000000000100000101000040
:10457800010100000101000001010000010100002b
:10458800010100000101000001010000010100001b
:10459800010100000101000001010000010100000b
:1045a80001010000010100000101000001010000fb
:1045b800010100000000000000000000101d0000c4
:1045c80021200000202000001f1f00001f130000f2
:1045d80003f10000e5e00000e0e40000efff000068
:1045e8000f1f0000202000001f1f00001e1e0000db
:1045f8001e1e0000202000002121000021200000b4
:104608001c16000009fb0000ede20000e1e10000db
:10461800e1e00000e0e00000d4d50000d7e40000ad
:10462800f1ff0000fe0000000a0a00000a0a00006c
:104638000a0a0000111d00002a2a00000e000000ce
:10464800f2e30000d7d20000d9e80000f50000002e
:104658000b1400001a1a00001a1a0000140e0000a9
:1046680003f00000e0d00000c3b80000b0af0000c5
:10467800b3c40000c9c90000c9c90000c9c9000005
:10468800d3d80000e0e50000f100000000000000c1
:104698000000000000000000000000000000000012
:1046a8000000000000000000000000000001000001
:1046b80001010000010100000101000001010000ea
:1046c80001010000010100000101000001010000da
:1046d80001010000010100000101000001010000ca
:1046e80001010000010100000101000000000000bc
:1046f80000000000000000000000000000020000b0
:10470800040600000808000008000000f7e900009f
:10471800e5e50000e5e50000e4e40000e4e300006e
:10472800e3e30000e3e30000e3e20000e3e300006a
:10473800e3e30000e4e40000e3e30000e4ee00004b
:10474800fc0c000019200000222200002222000098
:104758002221000021210000212100002121000048
:104768001e12000006000000f9fb0000fdfd00001d
:10477800fd0200000e1a0000273300003f49000028
:10478800595500004c4c00004c4c00004c4c0000ab
:10479800403200002415000002ef0000e0cd0000c8
:1047a800bdbd0000bdbd0000bdc90000d5e70000cb
:1047b800f90200000d1100000e030000f5e60000ec
:1047c800d8cc0000bebd0000bdbd0000bcbc0000d0
:1047d800bcb50000acac0000acb90000c7d200000a
:1047e800dee80000f2000000000000000000000009
:1047f80000000000000000000000000000000000b1
:10480800000000000001000001010000010100009b
:10481800010100000101000000000000000000008c
:10482800000000000000000001010000010100007c
:104838000101000001010000010100000101000068
:10484800010100000000000000000000000000005e
:10485800ffff0000ff00000001010000010100004f
:10486800000000000001000000000000000000003f
:104878000000000000000000ff010000010100002e
:10488800010100000101000000000000000000001c
:10489800000000000000000000000000000100000f
:1048a80001010000010100000101000000ff0000fb
:1048b8000a160000283300003e4b00003c3c000074
:1048c8003c3c00003b3b00003b350000302a000028
:1048d8002a2a00002a280000282800001f140000a7
:1048e80014140000141300001313000009fd000045
:1048f800f2e50000d8ce0000c4ba0000baba000041
:10490800bab80000b8b80000b8c50000d3e000008d
:10491800ed000000000000000000000000000000a2
:10492800000000000000000000000000000000007f
:104938000000000001010000010100000101000069
:10494800010100000000000000000000000000005d
:104958000001000001010000010100000101000048
:104968000101000001010000010100000101000037
:10497800010100000101000000000000fdfe000030
:10498800ff0000000201000000ff0000010100001c
:10499800010100000000000000ff0000ffff000010
:1049a800ffff000000000000000000000000000001
:1049b800000000000000000000ff0000ffff0000f2
:1049c800ffff0000fffe0000f9ef0000e4de00003a
:1049d800d9d30000cfcf0000cfcf0000cfc4000054
:1049e800d8e50000f60100000f1d00002834000083
:1049f800404c0000594c00004c4c00004c4d00004d
:104a08004d4d0000453a00003a3a00003a3800009f
:104a1800383800002b2b00002b2b00002929000020
:104a2800291f000015090000feef0000dece00007f
:104a3800beb30000b0b00000bcbc0000bcbc0000ad
:104a4800c4c40000c9d30000d6df0000eaf50000a6
:104a5800000000000000000000000000000000004e
:104a6800000000000000000000000000000000003e
:104a7800000000000000000001010000010100002a
:104a88000101000001010000010100000101000016
:104a9800010100000100000000000000000000000b
:104aa80000000000000000000000000000000000fe
:104ab80000000000000000000000000000010000ed
:104ac80001010000010100000101000001010000d6
:104ad80001010000010100000101000001010000c6
:104ae80000000000000000000002000004060000b2
:104af800060600000606000004fb0000eae80000c5
:104b0800e8e80000e8e80000e8e80000e8e800005d
:104b1800e8e80000e8e80000e8e80000e8e800004d
:104b2800e8e80000e8e80000eaf70000020d0000ed
:104b38001e230000282d000030340000302c000017
:104b4800281500001515000015160000161600009f
:104b58000e080000fdf60000e2e00000e2e20000be
:104b6800f60000000c1200001c1e0000202e0000a1
:104b780034340000343400003838000028150000b0
:104b880007f90000010e00001b250000303b000063
:104b9800465200005c5800004b4b00004b4b000095
:104ba8004b4b00004b3e0000322600001608000068
:104bb800fbeb0000ddd00000c3c30000c2c2000050
:104bc800c2b90000b6ba0000bfd10000dbe50000a2
:104bd800f0fd00000a150000202b00001e1e00003a
:104be8001e1e00001f1f00001f1800000f040000f9
:104bf800fdf20000f2f20000f2ee0000e6e0000034
:104c0800d6cb0000bfbe0000bebe0000bebe000086
:104c1800bbca0000d5e10000f0f50000fb00000071
:104c2800000000000000000000000000000000007c
:104c3800000000000000000000000000000100006b
:104c48000101000001010000010100000101000054
:104c58000101000001010000010100000101000044
:104c680000000000000000000100000000ff00003c
:104c780000000000ffff0000ffff0000ffff000032
:104c8800ffff0000ffff0000ff0000000000000021
:104c9800ffff0000ffff0000ffff0000ffff000014
:104ca800000000000000000000000000fffd000000
:104cb800fd0100000f1900002437000044510000d6
:104cc80045450000454500004242000042420000c0
:104cd800322800001d0a0000fff40000e2d10000a5
:104ce800c6bb0000bbbb0000bbba0000baba0000dc
:104cf800aab80000c7d40000e2eb000000000000e2
:104d0800000000000000000000000000000000009b
:104d1800000000000000000000000000000000008b
:104d28000001000001010000010100000101000074
:104d38000101000001010000010100000101000063
:104d48000101000001010000010100000101000053
:104d58000101000001010000010100000101000043
:104d68000101000001010000010100000101000033
:104d78000101000001010000010000000000000026
:104d8800000000000000000000ff0000fdfb000024
:104d9800f8ea0000dccb0000c6c60000c6c7000069
:104da800c5c50000c5c50000c5c60000c6c60000d0
:104db800c6c60000c6c60000c6c60000c6c70000ba
:104dc800c6c70000cdd90000e5f00000f8fe0000dd
:104dd800ffff0000ffff0000ffff0000ffff0000d3
:104de800ffff0000030b000018230000313900000a
:104df800393900003939000039390000393a0000e2
:104e08003a3a00003a310000261a0000140d00005a
:104e18000b09000007050000010b00001521000028
:104e2800262c000024170000171700001716000092
:104e38001616000016060000f3e40000d2c70000b2
:104e4800bcbc0000bcbc0000cbda0000ebfa0000e0
:104e5800fa0200000b1100000f090000f8eb000037
:104e6800dbce0000bdbd0000bdbd0000c9d90000fb
:104e7800e8fa0000040d00001009000000ee000030
:104e8800dccc0000bebe0000bebe0000baba000006
:104e9800bab20000a8a70000a5b20000c0ca00006e
:104ea800d4de0000e8000000000000000000000060
:104eb80000000000000000000000000000000000ea
:104ec80000000000000000000000000001010000d8
:104ed80001010000010100000101000001010000c2
:104ee80001010000010100000101000001010000b2
:104ef80001010000010100000101000001010000a2
:104f08000101000000000000000000000000000097
:104f180001020000faf00000e4e40000e4e400000c
:104f2800e4e40000e4e40000e4e40000e4e4000059
:104f3800e4e40000e4e40000e4e40000e4e4000049
:104f4800e5e30000e3e30000e9f40000fd090000e8
:104f5800161c00001d1d00001d1d00001d1d000069
:104f68001d1f00001f1f00001d0b0000080500008a
:104f780002ff0000fc0000000a15000023270000c3
:104f8800201700001717000017160000161600005b
:104f980016080000fcec0000e0d10000c4bb0000d3
:104fa800bbbb0000bbbb0000ccd90000e5f2000091
:104fb800ff0900000c10000011000000f5e70000d8
:104fc800d7ce0000c7bd0000bdbb0000bbbb0000c2
:104fd800b0ab0000b6c20000ceda0000e700000067
:104fe80000000000000000000000000000000000b9
:104ff80000000000000000000000000001010000a7
:105008000101000001010000010100000101000090
:105018000101000001010000010100000101000080
:105028000101000001010000000100000d10000056
:10503800090000000000000000000000000000005f
:10504800f0e50000dfd90000d9e30000f10000001e
:10505800071300001c1f0000262600001b13000079
:105068000cfb0000fbfb0000fbfb0000fbf8000052
:10507800f6f00000f7000000040a0000171800000e
:1050880018180000181a00001a1900001914000056
:1050980014000000ecdf0000cbc90000c3c2000010
:1050a800d3ed0000fafe0000090d00001214000004
:1050b800141000000e0e00000e0a00000806000082
:1050c80000000000000000000000000000000000d8
:1050d80000000000000000000000000000000000c8
:1050e80000000000000100000101000001010000b3
:1050f80001010000010100000101000001010000a0
:105108000100000000000000000000000000000096
:105118000000000000000000000100000101000084
:10512800010100000101000001010000010100006f
:10513800010100000101000001010000010100005f
:1051480000000000fd0200000202000004f8000058
:10515800ebe70000e7e70000e7e70000e7e700000b
:10516800e7e70000e7e70000e7e70000e7e70000ff
:10517800e7e70000e7e70000e7e70000e7e70000ef
:10518800e6e50000e7e70000e8e80000e8e70000df
:10519800e7e70000e7f00000f9060000132200002e
:1051a800292a00002c2a00002112000003f8000020
:1051b800eee80000e8e80000e8e80000e8e80000a1
:1051c800e9f00000f9020000101c0000283400007b
:1051d800393e00002d2d00002d2d00002c2c000044
:1051e8002c2c000019080000f9e80000d9ca0000ba
:1051f800bfb00000b0b00000b0af0000afaf00001b
:10520800bbc70000d4e30000eff80000050500006c
:10521800050500000c100000192600002d2a0000ca
:10522800210f000005fb0000ebda0000d3d30000db
:10523800d9e00000eef80000f8f80000f8f80000e7
:10524800fbfd000004020000000000000000000058
:105258000000000000000000000000000000000046
:105268000000000001010000010100000101000030
:10527800010100000101000001010000010100001e
:10528800010100000101000001010000010100000e
:1052980001010000010100000101000001010000fe
:1052a80001010000010100000000000000000000f2
:1052b8000000000000070000192b00002118000062
:1052c8001818000018180000181800000f00000037
:1052d800ede00000d8d20000d4d70000dbe70000e2
:1052e800f609000013160000151600001717000035
:1052f80017170000171800001717000017180000ec
:1053080018180000181800001819000019190000d2
:1053180015030000f5f00000edee0000eff10000cd
:1053280001f90000f5fd00000c150000151500003e
:1053380015160000161600003c3c0000281e000050
:1053480014080000f7ec0000e1d80000d2d60000f5
:10535800ecfd00000f1f000024240000242400009e
:105368001e18000005f20000e4d20000bfb20000e1
:10537800b2b20000b2b10000b1b10000a6a50000b1
:10538800b4c00000cdd90000e5f200000000000024
:105398000000000000000000000000000000000005
:1053a80000000000000100000101000001010000f0
:1053b80001010000010100000101000001010000dd
:1053c80001010000010100000101000001010000cd
:1053d80001010000010100000100000000000000c0
:1053e80000ff0000090b0000f9f60000f7f70000c5
:1053f800f7f50000f5f50000f6f60000f6f60000f7
:10540800f6f60000f6f60000f6f60000f6f60000e4
:10541800f5f60000f6fc0000030900000f17000075
:105428001b2a00002a2a00002a2a00002a2a000033
:10543800301c000012070000010e000020250000ab
:105448002020000020200000202000001a0f00006b
:1054580004f40000e4d80000c9bd0000bdbd000090
:10546800bdca0000d9e60000f7ff0000050b0000e8
:10547800111500001511000011110000110e000097
:105488000f0f00000f040000f9f80000f6000000fc
:105498000000000000000000000000000000000004
:1054a80000000000000000000000000001010000f2
:1054b80001010000010100000101000001010000dc
:1054c80001010000010100000101000001010000cc
:1054d800010100000101000000ff00000b150000a1
:1054e80020200000181800001818000019190000e2
:1054f800191900000dfe0000f3e40000d8ec0000cc
:10550800f80600001a22000014fc0000ece100007c
:10551800dddd0000dddd0000dddd0000dad60000a5
:10552800d8e70000f4fd0000f8fa0000fc060000cf
:105538000c0c00000c0c00000c0c00000c1c0000f3
:105548003b410000322800000f050000fbf400007a
:10555800ecdd0000d3c50000bbbb0000cedf0000bf
:10556800e4e40000e4e40000e4e80000f0f60000f1
:10557800fc00000000000000000000000000000027
:105588000000000000000000000000000000000013
:1055980001010000010100000101000001010000fb
:1055a80001010000010000000000000000000000f0
:1055b80000000000000000000000000000000000e3
:1055c80001010000010100000101000001010000cb
:1055d80001010000010100000101000001010000bb
:1055e8000100000000000000fefe0000feef0000c9
:1055f800ddcd0000dcdc0000dcdc0000dede0000cd
:10560800dede0000ecf900000514000014140000b0
:1056180014160000161600001621000027200000ae
:105628000fff0000f4f40000f4f40000f4f40000ac
:10563800f4f40000f3f30000f3f30000f3f30000c8
:10564800f5fa0000071500001515000015160000f2
:1056580016160000161e0000251a00000bfe00009a
:105668000813000021220000180e00000e0e000092
:105678000e10000010100000101000000f100000a5
:1056880011110000111100000f0f00000f0f000092
:10569800101d00002c3a0000382d00002d2d0000b0
:1056a8002d2e00002e2e00002e2500001c090000c3
:1056b800fbec0000dbce0000c3c00000c5c5000045
:1056c800c5c50000c7c70000c7c70000ccd500008b
:1056d800e6f40000000000000000000000000000e8
:1056e80000000000000000000000000000000000b2
:1056f800000000000001000001010000010100009d
:105708000101000001010000010100000101000089
:105718000101000001010000010100000101000079
:105728000101000001010000010100000101000069
:10573800010100000100000000000000000000005e
:10574800000000000000000000000000fe01000052
:10575800fefb0000f1e60000e1e10000e1e10000ed
:10576800e1e10000e1e10000e1e20000e2e2000026
:10577800e2e20000e8f60000071500001d1d000029
:105788001d1d00001d1d00001c1c00001c1c00002d
:105798001c1c00001d1d00001e1d00001c1d00001b
:1057a8001d1d00001d1d00001d1d00001d1d000009
:1057b8001d1d000012000000fefc0000fafa0000a7
:1057c800faf90000031300001d2800002a2c00002d
:1057d8001d1d00001d1d00001d1d00001d1d0000d9
:1057e8001d0f000000ef0000e5da0000cac4000049
:1057f800bfc60000c6dd0000eef80000030f000081
:105808001c1c00001c1c00001c10000004f90000f7
:10581800eee40000dacd0000c1c10000c1c1000003
:10582800c1bf0000bfbf0000bfb80000b0ba000091
:10583800c5d00000dce80000f40000000000000013
:105848000000000000000000000000000000000050
:10585800000000000000000000010000010100003d
:105868000101000001010000010100000101000028
:105878000101000001010000010100000101000018
:105888000101000001010000010100000101000008
:105898000000000000ff0000fdfb0000f1e6000032
:1058a800d6d60000d9d90000d9d90000d9d900002e
:1058b800dce20000e5e90000edf10000f9ff00007e
:1058c800ffff0000ffff000000040000090d0000ba
:1058d80012150000191f00001f1f00001f1f0000e5
:1058e8001f1f00001f1f00001c0e00000200000008
:1058f800ff090000141b00002d20000020200000dc
:1059080020200000201c0000161200000afd0000e4
:10591800f6ec0000e2d10000bfbf0000bfbf0000ee
:10592800bfbf0000cad50000e1ed0000f905000086
:1059380015150000151500001519000019190000ab
:10594800192b0000241300000600000000000000ce
:10595800000000000000000000000000000000003f
:10596800000000000000000000000000000100002e
:105978000101000001010000010100000101000017
:105988000101000001010000010100000101000007
:1059980001010000010100000101000001010000f7
:1059a80001010000010100000101000001010000e7
:1059b80001010000010100000101000001010000d7
:1059c80001010000010000000000000000010000cb
:1059d800fefa0000eedd0000d3c70000c7c70000d4
:1059e800c7c70000c7c70000c7c70000c7cc000072
:1059f800d0d50000dade0000e3e30000e3e30000b6
:105a0800e2e80000edf30000f6f90000feff0000f8
:105a1800ffff0000ff050000090b00000e14000046
:105a28001a1a00001a1a00001a1d0000212400008a
