:020000040000fa
:080000000002040000000000f2
:020000040000fa
:10040000af5824000e7f24000e0188000000000079
:100410000c00070060e22600010020001f0007001a
:10042000000020000000e000020032000000020096
:100430000000000056610200000000000040da00e9
:100440000000fe004440a900200c21000000e00054
:100450000300320000002000a00188004440a800f2
:1004600000000600f03fb1000180b1000600350039
:10047000ee03090000000000403fb1000180b10020
:10048000fbff3d001000b000203fb000020035002f
:1004900000800900000000000000060091018800b3
:1004a000800078000000eb0015003700e28040007b
:1004b00032a0b4009101ba00e280400032a0b40042
:1004c0009102ba00e280400032a0b4000002eb00ca
:1004d000472bde00f507b200602ce10004003a0073
:1004e0000059eb008301e900fdff3e0004003700e6
:1004f0006128e100010032000082eb0004000700e7
:100500001101ba000200e000e8ff3a000000060016
:100510003159ba008301e9000c0032002159ba00b8
:100520008301e900080032000400e00003003a0003
:10053000e280400032a0b400f5ff370011d9ba00c4
:100540008301e900faff3a008100e800e180400001
:1005500032a0b400000006000040da000000fe00f7
:10056000800078001104b100030035009101b10052
:1005700001003c000050a000000006008000780050
:100580001106b100030035009101b10001003c00eb
:100590000050a100000006000a00fa008001780067
:1005a000e20f500028003e00402c8200e10f500076
:1005b00008003200802320000000e0000500320027
:1005c00004232000252320004623200080017800fa
:1005d00004003700042220002522200046222000ab
:1005e00083222000144090000004e0000400350045
:1005f0008009eb00144090000074a00010429800a5
:10060000154090000028a30003003a001540900018
:100610000024a000904298008001eb000700370002
:10062000154090000008a300fdff320063c0780071
:100630000000fb00000b78008301e800828f51006e
:10064000f7ff3a000800370030002000b0bf9f00dd
:10065000c3bf9f00d1bf9f00e2bf9f006a805700c9
:1006600000c0da006fb99700020078000080fa003d
:1006700000000600020ab900001bb9000200b80021
:10068000810042008100430000000600889fbe00f8
:100690008a9fbe008c1f78000205be000004be00c9
:1006a0000006eb00e00f5000e08f5800e00f59000b
:1006b000e08f590007003d006000b8006011b800ed
:1006c00008045000898458000a0559008b85590098
:1006d0001c002000e00f5200e08f5a00e00f5b008a
:1006e000e08f5b0002003d000f0007000c00a2003d
:1006f0000800be000a01be004d0207000203be0052
:100700000002be000c00e0000100320006000700fd
:100710000400be000601be004f0678004f05be0073
:100720004f04be00000006006000b8006011b80071
:10073000040250008582580006035900878359003f
:1007400000000600881f7800000478005001be00f9
:100750004000be00040040008580480006014900ba
:1007600087814900009cbe000294be000400e100a5
:100770000588e1000690e1000798e10002003100e1
:10078000680044001008e8004f04780000000600ec
:10079000f4874700889fbe008a9fbe008c9fbe00e2
:1007a0008e1f78000205be000004be00d4b79f0073
:1007b000e5b79f00f6b79f0087bf9f000000eb00e2
:1007c000c0b79f00b0b79f00a0b79f0090b79f0031
:1007d00080b79f000d042000bfb097004fb0970076
:1007e000000140000000e0000f003d004f08de0067
:1007f00000007100c0b79f009e00070001003d008f
:1008000012002000a100070001003d00120020009e
:10081000a6000700b1000700b60007000f00400067
:10082000c8ff0700220037004f08de0000067100f5
:10083000ccb79f008f00070001003d001200200090
:100840009200070001003d00120020009700070001
:10085000a20007000fb297009fb297002fb3970036
:10086000bfb39700a90007000000520081805a0022
:1008700002015b0083815b0080b79f0091b79f00fe
:10088000a2b79f00b3b79f000007eb009f000700cf
:100890000020e10001a8e10002b0e10003b8e1009e
:1008a000010031001e0020000e005600c0b79f005e
:1008b0004fb297000400e000070035001000200050
:1008c000010020006011b8000804700089847000e5
:1008d0000a0571008b8571008d06e900beff3a00a4
:1008e0000400e00003003d00820007000f0040000c
:1008f00094ff07004fa897000000e00004003a00b2
:100900000fb497009fb497002fb59700bfb597001d
:10091000940007004f0778004f06be004f05be0049
:100920004f04be004f01b10000000600881f780090
:1009300018002000881f780095ff07008f87e900c6
:100940004f04780000000600801feb0090ff0700b6
:100950008f87e90000000600889fbe008a9fbe00c6
:100960008c1f78006e00070007003d007300070031
:10097000e00f5b00e08f5b0007003d0032000700e6
:100980000006eb00040037003400070002003d00c1
:100990002a0007001c00200072000700e3ff070088
:1009a0000203be000002be000c00e00001003200a5
:1009b000220007000400be000601be004f067800ba
:1009c0004f05be004f04be0000000600889fbe0019
:1009d0008a9fbe008c1f78005100070005003d0073
:1009e00056000700e00f5b00e08f5b0006003d0053
:1009f000040037001900070003003d006000b80044
:100a00006011b8001000070056000700ceff070075
:100a10000203be000002be000c00e0000100320034
:100a2000060007000400be000601be004f06780065
:100a30004f05be004f04be00000006006000b80075
:100a40006011b80000003700040250008582580091
:100a50000603590087835900000006000006eb00da
:100a6000e00f5200e08f5a00e00f5b00e08f5b0068
:100a7000000006000180400090b79f000001eb00dd
:100a80008fb097000100e000000006000200700037
:100a900090b79f000180400080b79f000001eb00ed
:100aa000ffa897000100e0000000060002007000af
:100ab00080b79f00018040006faa9700cf20de0022
:100ac00001007000f0af9f00040242002500070003
:100ad0004f18de000002720000000600e4af9f0025
:100ae0000804440089844c000a054d008b854d00a4
:100af000000006003fb29700cfb297005fb39700a7
:100b0000efb3970000fe2f00000006003fb09700f3
:100b1000cfb097005fb19700efb1970000000600db
:100b20000205be000004be00e00f5000e08f580038
:100b3000e00f5900e08f5900000006006000b80087
:100b40006011b80008045000898458000a05590053
:100b50008b8559001c002000e00f5200e08f5a00e6
:100b6000000006000800be000a01be0000000600ea
:100b70006022b800060220000000d0008180d20070
:100b80000482d2008582d2000000a000020252003e
:100b900083825a00030031000202420083824a002d
:100ba0000000a1000603e900f3ff3a000000060080
:100bb000889fbe008a9fbe008c1f78003e01070000
:100bc0004501330003866c006450e10024003200cc
:100bd0006420e100270032006150e1002200320071
:100be0006120e100210032008b854200eb07b1005b
:100bf0000134b800003ab8000804420089844a0071
:100c0000013ab8000030b8008880400009014a006d
:100c100004003300000040008180480002014900c8
:100c20008b05e900c909dd00830170000100320075
:100c300013002000c814de004814dd004709de0060
:100c40001200b200c808de000884700032010700fc
:100c500001f0a1000cf0a70001f0a000270137006f
:100c60006120e100290132000801be000200be003f
:100c7000f7ff37006150e100fcff3a002301370025
:100c80000001be004a0107000470a70003f0a100a4
:100c90006509b100160032000d0035006828e1003a
:100ca00006003500f0ff2f00f1ff27000300e000f1
:100cb00013003b0001002800000005000000400078
:100cc000818048008502e900fcff3a0008003700f7
:100cd000f88f420002003c008000eb00000005009d
:100ce0008100d1000080d3008502e800fcff3a00bb
:100cf0000300e00002003b0060001000e0801800ec
:100d000000000600889fbe008a9fbe000105780093
:100d10000100e0000400350008003c000000e00095
:100d2000200032000500370060001000e08018004d
:100d300002003b0001f02c001a0037000004be0046
:100d40006011b8006b0920000982cf000200390051
:100d50000882cf000441b000694252000e00320008
:100d600008003b0082817100610164008904d100a8
:100d70000884d3008b05e8000442e800f9ff3a003c
:100d8000050037000804440089844c008b05e90005
:100d90000442e900fbff3a00df0007000af0a70069
:100da00001f0a0004f05be004f04be000000060089
:100db000889fbe008a9fbe008c1f7800be0007007f
:100dc000c500330003866c006450e1002e00320041
:100dd0006420e100330032006150e1002f00320056
:100de0006120e1003100320085855500eb07b0003d
:100df0000900200008042000050037000804440012
:100e000089844c000a0031000603430087834b00ad
:100e10000001530081815b00f8ff33000203be0034
:100e20000800a0000804440089844c00f6ff390043
:100e3000c639dd0083017300010032001300200079
:100e40008904d1000884d3000998a300050032006a
:100e50000800a7000300a0008904d1000884d30083
:100e60008b05e8008904d1000884d3000001eb0061
:100e70000281d200a800070001f0a1000cf0a70039
:100e800001f0a0009d0037006420e1009f003200c7
:100e90000801be000200be00f7ff37006120e1003c
:100ea0009a0032006000b800f3ff37000000200015
:100eb00001f82700f0ff370003f0a200889fbe0072
:100ec0008a9fbe008c1f78007b00070082003300e1
:100ed0006450e1004f0032006420e1005200320013
:100ee00003826c0007003b000905d0000306d00018
:100ef000820f54000c065d0002003900020032002f
:100f000089017800030678008582550004003d00c1
:100f10000003fd008103fd008502ea008b8542008d
:100f2000840f720002003b0060001000e080180097
:100f30006011b8000005eb007a28e1000a003900d2
:100f400006007800c75ddd00f707b20087807500f6
:100f50002d003700828171000a0178006105600070
:100f60008180d1000080d3008502e900f9ff3b00b9
:100f7000060440008784480002003b00600414001f
:100f8000e0841c000988a300070032008a817100f8
:100f900082817100610164008904d1000884d3005a
:100fa0008b05e800170037000978a30013003a000a
:100fb0000b00e000130034008b05e9000804440036
:100fc00089844c000a4474000978a3000d003a009b
:100fd0000b00e000070034008b05e9000804440022
:100fe00089844c0001003a000b0020000978a3001e
:100ff000f7ff32000001eb00020037008281710030
:101000000a017800440007000cf0a70001f0a000de
:101010003a0037006420e10002003a00838f6c0040
:101020003a0033000801be000200be003300370062
:10103000889fbe008a9fbe008c9fbe000404b8003b
:101040000506b8008904460060854e000606b80013
:101050000a054600e0854e000706b8008b054600ed
:10106000040eb800890446000a854e00e0854d0054
:10107000050eb8000a0546008b854e00060eb80026
:101080008b0546000416b8000a0546008b854e0005
:101090000516b8008b054600041eb8008b054600f7
:1010a0000800be000a01be004f06be004f05be008c
:1010b0004f04be00000006000004be003c00070014
:1010c0000003be000405be000200be003800070099
:1010d000844f7500000006000200be006450e1006d
:1010e000050036006420e100020036000968a30014
:1010f00001003a000800be000160a0004f06780021
:101100004f05be004f04be0000000600f0ff2f0098
:10111000f1ff2700f9ff37008100200061805500b2
:101120000b003d000b00200061fe2f000100e100dc
:101130001d00340082817100610164008904d100c6
:101140000884d3000000e800faff3a007100200094
:1011500061006400030070000200600009003200ba
:1011600061044400e0844c000988a50005003200b9
:101170008b05e8006808e10002003a008904d1000c
:101180000884d300f20f20000258e10005003d0062
:10119000c75ddd00f907b20089807500080078009e
:1011a000000006000bf827008b0078000000050007
:1011b000c70ade00f107b200f50fb20008003200e6
:1011c000e1cf4200020032000170a00024000500bf
:1011d000810f700001003200040805004400050082
:1011e000810f700002003a00140005008502e9003a
:1011f0000000400081c04800fcff3b000170a000df
:1012000024000500101388002113880002138800b1
:10121000000006008820a900e7416000c419dd0035
:10122000410b200091407800f2c8b30082c06000fa
:1012300083c070008000fd00b4e0b7008000fd00b6
:10124000680060004300de0000404000810920008b
:10125000914078000114a10080c070000100780066
:1012600098e0b7000000060064198800871988001c
:101270009319880022198800111988000019880024
:101280000000d100614060000040400001322000b9
:10129000914078000114a10080c070000100780026
:1012a00020e3b7000000060085a0a900e741600028
:1012b000c419dd00a10a200091407800f2c8b300f3
:1012c00082c0600083c070008000fd00aae0b7000b
:1012d0008000fd00680060004300de004500dd0086
:1012e00051092000914078000154a10080c0700095
:1012f0000100780095e0b700000006002023a90057
:10130000000006000080fb000000400001302000cb
:1013100060807800000006000021ef0011088800be
:1013200020088800000006008460a900e7416000f2
:10133000c419dd00510a200091407800f2c8b300c2
:1013400082c0600083c070008000fd00a5e0b7008f
:101350008000fd00680060004300de004300dd0007
:1013600041092000914078000134a10080c0700044
:101370000100780094e0b700000006000621ef00ad
:1013800061088800800888001061a900000006003c
:1013900084e0a900e7416000c419dd00710a200063
:1013a00091407800f2c8b30082c0600083c0700032
:1013b0008000fd00a7e0b7008000fd00680060002d
:1013c0004300de004700dd00410920009140780025
:1013d0000174a10080c070000100780094e0b700a3
:1013e000000006000a21ef007108880090088800bc
:1013f000000006008500a900e7416000810a200086
:101400009140780082cfb30082c0600083c070003a
:101410008000fd00a8e0b7008000fd0068006000cb
:101420004300de0051092000914078000104a10032
:1014300080c070000100780095e0b7000000060051
:10144000431820009341780084cfb30084c1610029
:101450008001fd0084e1b7008001fd00010c8800df
:10146000120c8800200c880000000600a318200041
:101470009341780084cfb30084c161008001fd00f6
:101480008ae1b7008001fd00310c8800420c880021
:10149000500c8800000006004211880000118800ee
:1014a00011118800000006008560a9008580a90050
:1014b000e7416000c419dd00910a200091407800e6
:1014c000f2c8b30082c0600083c070008000fd00dd
:1014d000a9e0b7008000fd00800178000307b2009a
:1014e000c419de00a10a20009140780082cfb30029
:1014f00082c0600083c070008000fd00aae0b700d9
:101500008000fd00680160004311de004311dd0032
:1015100051092000914078000134a10082c0700080
:101520008000fd0095e0b7008000fd000008b200db
:101530004700de004400dd005109200091407800a2
:101540000144a10080c070000100780095e0b70060
:10155000000006000001780084c1bf006600600042
:101560008080eb00e60f500002003a00020c880079
:101570001100200001007800000006000001780042
:101580008ac1bf00660060008080eb00e60f50005b
:1015900002003a00320c880011002000010078009f
:1015a0000000060094e0a90011e1a90084e0a90070
:1015b000000006009500a90013e1a9008500a9001c
:1015c000000006009460a90005e1a9008460a9005c
:1015d000000006008000780063c2bf000028a3005e
:1015e00001003a00f10fb20041138800000006002c
:1015f00060c2bf008080eb000008a300080032003a
:1016000060c2a90063c2bf000028a300020032002c
:10161000411380000200370041138000f10fb20037
:101620000100780000000600800078003004e0002f
:10163000feff3a00010050000000e9000000060033
:10164000889fbe000004be00060037000804e800c2
:101650000000fb0089007800c2000700e10f400095
:1016600004003200184078000004e000f7ff3a0060
:101670000000eb004f04be0000000600881f780049
:1016800021562400eeff07000004780021562400b4
:10169000a0002000b3000700080078004f04780085
:1016a0000000060001002000e02b8a00f12b8a00d8
:1016b00011c0b300a05724000148780000000600c4
:1016c000a25724001204e00006003a001000200097
:1016d00001002000e02b8a00f12b8a0010c0b3002b
:1016e00000497800d2e62400631c2400e02b82002d
:1016f000f12b8200dffb07000001be0090032300f6
:10170000010020000200400083804800e02b8a0096
:10171000f12b8a004088de00cf80de0000f0a100bf
:10172000000006008001eb000200370061f0790044
:101730008301e800828f5100fcff3a0000000600a0
:101740000000fa00cfb897006881570020562400a7
:10175000cb0007000080fa00000006000c00fa0031
:10176000889fbe0000047800cfb09700f0ff2700ec
:10177000d0bf9f008004eb0099bf9f0088bf9f00ef
:10178000a8bf9f00200c2000b0bf9f0078815700a9
:1017900070805700ba0007000fb89700094878001a
:1017a0000fb8970008045000080078004f04be00ee
:1017b0000080fa000000060010417800b14151009d
:1017c00003003a000000e8000204e000faff3a00db
:1017d0000300fb0000000600810178000002eb001e
:1017e0000b003700e44078000104e0000300320001
:1017f0000402e80093cf5000040032008180fb0017
:101800001380fb0000805000000006008301e80008
:10181000820f5200f3ff3a0000000500889fbe00cf
:101820000004be000000e00003003a00382c8200f3
:101830000800e000130032000800be004503070066
:10184000000444001804e00004003a000000eb002b
:10185000302c8a00000478000a0037000800be001f
:101860004f03070000004400302c8a001004e00001
:10187000020032000058eb00010037000000eb00ce
:10188000302c8a00080078004f04be0000000600db
:101890000001780000c2b300010037000201e80037
:1018a0009240780080cf5000fcff3200e9cf50001a
:1018b000faff3200d0c2b30080cf500003003a00dc
:1018c0000201e80014c0b300050037000042eb003d
:1018d000b0c2b30080cf500001003a000201e8001e
:1018e0008000eb0005fd2f00040037006a08b900f6
:1018f00000804100850040000201e8009201fb00e9
:1019000005804100e90f5000f8ff36000404e000b4
:10191000010032008100ea000100780000000600aa
:10192000889fbe000004be00080037008000fb0056
:10193000090078002d0307000000e00002003200db
:1019400008007800050037000804e8001840780017
:101950000004e000f5ff3a000000eb004f04be0079
:1019600000000600889fbe00000178000104780096
:10197000b10090000118a3003d0032000198a300bf
:1019800003003a00180090000000e00038003a0020
:101990000190a0003104980082047800f90fb20091
:1019a000180090000000e00002003a0028009000bb
:1019b000000c7800ea8f540006003a0038009000ce
:1019c0000078a30003003a0088007800d0002000cf
:1019d000e4ff07009800900058009000808f5000ae
:1019e0000b0032000100e800100498001800780095
:1019f00009587800000c780011c0b300405824004a
:101a000001487800ea8f54000600320019003700c0
:101a10008800780009407800fc0207008004780004
:101a200014003700380090000088a3001100320035
:101a300018019000a800900048009000d6fa070016
:101a400098009000810f5000040032003800900090
:101a50000003b300300498008084eb000000eb002a
:101a60001004980028009000000c78000100370056
:101a70008084eb00090078004f04be0000000600df
:101a8000fe874700889fbe008a9fbe008c9fbe00d5
:101a90008e1f7800f0b79f000107780082bf9f007b
:101aa0000000eb00a0b79f009f0237008006eb000c
:101ab00050c2b30080cf5000090032000100fb008b
:101ac000ffb09700a7ff0700e10f40009602320029
:101ad000afb097008100e800a1b79f0092023700e5
:101ae0009e407800d0c2b30080cf50000c0032007e
:101af00007003c006d40500080cf50000a003200cb
:101b00006b40400080cf50000e003a0008003700c4
:101b100000c3b30080cf50000a003a00060037002f
:101b20000d30a000050037000d00a00003003700b5
:101b30000d10a000010037000d20a0000e07e800e6
:101b4000e7ff37000d18a300010032000d00a100cf
:101b50000d38a300010032000d20a1000100fb00a0
:101b600002fd2f0002004000e90f50000e003e0071
:101b70000002eb00c4b79f0082017800cfb297004b
:101b80006a28b9001e01fb00000141000301410069
:101b9000c2b79f005e00fb0003004000e90f500049
:101ba0000b003e00f5ff37000006eb00ccb79f00ae
:101bb000a0c2b30080cf500005003a000fb89700d4
:101bc000c000780080bf9f00c1b79f000e07e800eb
:101bd0000001eb00b2b79f00e0c2b3009e4f1000bf
:101be00018003a000de0a0008e00e80064405000ac
:101bf000914f100002003200010778000c003700fe
:101c00000fba9700c402780084bf9f00b5b79f0049
:101c10000e87e8000b0037003fb697006a60b900f6
:101c20000000410003004000b0b79f000e07e8002d
:101c30001e01fb0003fd2f0003004100e90f5000cf
:101c4000f5ff3600be407800e1d79f00c0c6b30064
:101c500080cf5000220032000f003c00694050004d
:101c600080cf50007700320004003c000104e00007
:101c7000310232006b4050000f00370040c6b30005
:101c800080cf5000930032006540400080cf50006c
:101c90008b003a008f00370030c7b30080cf500070
:101ca0001a00320007003c006440500080cf500012
:101cb000110032000040e80080cf500080003a0060
:101cc0000f00370050c7b30080cf500080003200b3
:101cd0006340400080cf500079003a00090037008f
:101ce000000028000d48a30001003a000001200078
:101cf00080867600d3ff37000d60a00075003700a6
:101d00000d50a0000d70a000720037008fb8970032
:101d10004100780081bf9f00000478000000e000cf
:101d200001003a00a85224008004eb0001003700b3
:101d30008104e80089007800088044001004e00075
:101d4000fbff3a003fb197000200e00003003200c1
:101d5000890f510001003100820478000002eb007d
:101d6000e4af9f00cfb29700898f52000200360087
:101d700009805200e0af9f004368de00e10660008a
:101d80001b003a000d06780009003700ffb09700ed
:101d900000022000f3fe0700e10f400003003200c4
:101da0002fb097000000e800a0b79f000c06e800e5
:101db000efa89700810f5600f4ff3a000081eb0076
:101dc000e2af9f000a003700880078003100fb0076
:101dd00001047800ffb09700e2fe0700e10f400029
:101de000030032002fb297000402e800a4b79f005e
:101df0000900e90080047800e10f4000f2ff3a009a
:101e00000006eb000d00e0000a003a00c6013700b2
:101e1000ffb0970000022000d2fe0700e10f400053
:101e200003003200afb297008502e800a5b79f001b
:101e30000c06e8006fa89700800f5600f4ff3a00e8
:101e4000b90137008fb897004100780081bf9f002b
:101e5000cf80de0001017800820178000205be001b
:101e60000004be000203be000002be004822de00e5
:101e7000482edd0004027600e4d79f000d48a30041
:101e80000a0032000404e00008003200e14f420082
:101e90000600320071fd2f000180470004487800e1
:101ea000184098002900200002003700f0d79f005a
:101eb0001900200072fd2f0002844700a1ff3700a7
:101ec00064fd2f0004844700190020009dff3700a7
:101ed0000d0cb3000d007800000cb20028003a0091
:101ee0000d00e00005003d008fba97004505be00db
:101ef0004504be0085bf9f00140037000d48a300b5
:101f00000b0032000fbe97004c00be008cbf9f003c
:101f10004f89de00cf91de000002be000203780090
:101f2000820378000605be000404be0007003700e7
:101f30008fb897004100780081bf9f0000047800af
:101f4000cfc4de00090578008a057800e00f540050
:101f5000e08f5c00e00f5d00e08f5d001f003d0042
:101f60003d00b3006000b8006011b80008045000e4
:101f7000898458000a0559008b85590017003700dd
:101f80000d00e00005003d000fb997004205be00be
:101f90004204be0082bf9f00100037000d48a3001e
:101fa000070032000fba97004400be0084bf9f00b4
:101fb0006011b8000205be000004be000700370033
:101fc0008fba97004500780085bf9f000004780015
:101fd000090020000a0020000b0020003fb69700f7
:101fe0000c00e00007003a00e00f5400e08f5c00b6
:101ff000e00f5d00e08f5d0002003a00100020005d
:10200000b0b79f008d007800010cb200e1b79f00cf
:1020100000042000808f50003000320003003c009c
:102020000100e000080032004000370000082000f6
:102030006fb19700800f510014003200000c200097
:10204000800f510039003a0014c0b300a5482400a5
:102050000b0037000400fb004300dd0005004000da
:102060005001be004000be000040e10001c8e10098
:1020700002d0e10003d8e1002b0039000442e8005f
:10208000f44f5200f3ff3a00270037000001200010
:10209000010020006011b80014c0b3000040e1004e
:1020a00001c8e10002d0e10003d8e1001e003900c0
:1020b000450020000000d0008180d2000281d200c3
:1020c0008381d2008502e900faff3a000442e80069
:1020d000f04f5200f1ff3a0013003700800020005b
:1020e000010020006011b80014c0b3000040e100fe
:1020f00001c8e10002d0e10003d8e1000a00390084
:102100003c0020000000d0008180d2000281d2007b
:102110008381d2000c06e900faff3a000442e8008d
:10212000f54f5200f1ff3a00e4d79f00efd097003f
:102130000100fb003fb19700820f500002003d00fc
:10214000e2d79f00040037003fb29700800f520093
:1021500001003d00b0b79f00cfb297000500e0003e
:102160000400320063806600020032008502e9004c
:10217000c5b79f000de8a3000b0032004fb69700d3
:102180003fb09700800f560003003c008000eb003a
:10219000c1b79f00040037004fb197003fb29700ce
:1021a00004015100c2b79f00efd297000500fb0069
:1021b0000006eb00dcaf9f00cfb09700808f50008f
:1021c0000200340000805000d0af9f000d28a30013
:1021d00037003200e18066000d18a3000c003200c9
:1021e000d00220000100e00001003a000080e90078
:1021f000ffb09700dbfd0700e10f40000e0032004a
:102200002fb197000201e800a2b79f000a00370033
:102210000100e00008003200ffb09700000220003b
:10222000d0fd0700e10f4000030032002fb29700fd
:102230000402e800a4b79f00dfaa97000500e000b1
:102240000f0032000006eb00ffb0970000032000f3
:10225000c4fd0700e10f4000030032002fb09700db
:102260000000e800a0b79f000c06e800dfa8970078
:10227000810f5600f4ff3a000001eb00d2af9f003f
:102280003fb29700c320dd0020482400808040003a
:1022900091b79f004220dd006400500080b79f008e
:1022a0006320b900f0af9f00630650008400370040
:1022b000dfaa97000500e000110032006880660088
:1022c0000f003a0000067800ffb0970000022000df
:1022d000a4fd0700e10f4000030032002fb097007b
:1022e0000000e800a0b79f000c06e800dfa89700f8
:1022f000810f5600f4ff3a000001eb00d2af9f00bf
:10230000e18066000d18a3000c003200d00220000e
:102310000100e00001003a000080e900ffb09700f2
:1023200090fd0700e10f4000d5ff32002fb297006b
:102330000402e800a4b79f00d1ff37000100e000cd
:10234000cfff3200ffb097000002200085fd07009c
:10235000e10f4000caff3200afb297008502e800eb
:10236000a5b79f00c6ff370000042000efb097001c
:10237000808f50003100320003003c000100e0007b
:10238000080032003e003700000820006fb19700bf
:10239000800f510011003200000c2000800f51000e
:1023a00037003a001fb097003002be002003be0085
:1023b0000800be000a01be005cf90700a40020006e
:1023c000050020006033b8005ff9070004c3b300c4
:1023d00004424000e4d79f00290037001553240031
:1023e000d5b79f000d58a30002003a0020542400e6
:1023f000d0b79f0014002000050020006033b80013
:102400008fb097008100e900050033000402d0007e
:102410008582d2000683d2008783d200f9ff37007d
:102420000800be000a01be0040f907006f0060000e
:102430005fb1970062407800100037001400200060
:10244000050020006033b8000c0078000000e900af
:10245000050033000402d0008582d2000683d2003a
:102460008783d200f9ff37000800be000a01be00d2
:102470002ef90700674060000043b000e0d79f00de
:10248000efd097000100fb00ffb0970035fd07007b
:10249000e10f4000030032002fb197000201e80075
:1024a000a2b79f001fb297006802520094b79f0026
:1024b0008fb29700e482520085b79f0063065600f2
:1024c000d0ff2f003fb197000090b9007faa97007e
:1024d0000000420063005000800f5600a2ff3a0047
:1024e0000d38a30010003200dfaa97000500e000bd
:1024f0000d0034000006eb00ffb097000002200042
:1025000018fd0700e10f4000030032002fb09700d4
:102510000000e800a0b79f000c06e800dfa89700c5
:10252000810f5600f4ff3a00be407800e1d79f00cb
:102530000104e0005dfd3a002fb097004f077800de
:102540004f06be004f05be004f04be00ef01b100b4
:1025500000000600889fbe008a1f780000057800f2
:10256000810478000004eb00010037000804e80053
:1025700068407d000004e000050032008000fb00a0
:1025800009007800190007000000e000f7ff3a009a
:10259000080078004f0578004f04be0000000600d8
:1025a000889fbe008a1f78000005780081047800ab
:1025b0000004eb00010037000804e80068407d00db
:1025c0000004e000050032008000fb0009007800f4
:1025d000060007000000e000f7ff32000800780066
:1025e0004f0578004f04be0000000600104178003f
:1025f000814f5100040032000000e8000204e000b6
:10260000faff3a000000eb00000006000200fa00aa
:10261000889fbe00a0ff9f0001047800b1009000d9
:10262000810478000904b200020032000000fb00bf
:10263000360037000118a30005003a000103b3007b
:1026400031049800190498000080eb002f00370037
:10265000580090000000e00006003a00480090009a
:1026600012002000e6805700cbf7070019049800fd
:1026700024003700280090000000e00008003a0025
:102680000058240020049800000c7800200020004e
:1026900050049800100498000130a0003104980004
:1026a00018019000a800900048009000baf70700b9
:1026b00028009000000c78000080eb0010049800c7
:1026c00018007800aff8970001587800000c7800e7
:1026d0002ff89700ea4f50000a003a0038009000a7
:1026e0000088a3000700320018019000a8009000a5
:1026f00048009000a8f7070019049800a80090006f
:10270000010c7800aff897000100fb004f04be00f9
:082710000080fa000000060041
:020000040000fa
:0200000401f009
:04000000ffff0000fe
:020000040000fa
:0200000401f009
:04000800ffff0000f6
:020000040000fa
:0200000401f009
:04000c00f9ff0000f8
:020000040000fa
:0200000401f009
:040010009bff000052
:020000040000fa
:0200000401f009
:040014007fff00006a
:020000040000fa
:0200000401f009
:04001800ffff0000e6
:020000040000fa
:0200000401f009
:04001c00dfff000002
:020000040000fa
:10000800ac020000ac020000ac020000ac02000030
:10001800ac020000ac020000ac020000ac02000020
:10002800ac020000ac020000ac0200000a5f000055
:10003800ac020000ac020000ac020000c860000086
:10004800c0570000ac020000ac020000dc600000f9
:10005800ac020000ac020000ac020000ac020000e0
:10006800ac020000ac020000ac020000ac020000d0
:10007800ac020000ac020000ac020000ac020000c0
:10008800ac020000ac020000ac020000ac020000b0
:10009800ac020000ac020000ac020000ac020000a0
:1000a800ac020000ac020000ac020000ac02000090
:1000b800ac020000ac020000ac020000ac02000080
:1000c800ac020000ac020000ac020000ac02000070
:1000d800ac020000ac020000ac020000ac02000060
:1000e800ac020000ac020000ac020000ac02000050
:1000f800ac020000ac020000ac020000ac02000040
:10010800ac020000ac020000ac020000ac0200002f
:10011800ac020000ac020000ac020000ac0200001f
:10012800ac020000ac020000ac020000ac0200000f
:10013800ac020000ac020000ac020000ac020000ff
:10014800ac020000ac020000ac020000ac020000ef
:10015800ac020000ac020000ac020000ac020000df
:10016800ac020000ac020000ac020000ac020000cf
:10017800ac020000ac020000ac020000ac020000bf
:10018800ac020000ac020000ac020000ac020000af
:10019800ac020000ac020000ac020000ac0200009f
:1001a800ac020000ac020000ac020000ac0200008f
:1001b800ac020000ac020000ac020000ac0200007f
:1001c800ac020000ac020000ac020000ac0200006f
:1001d800ac020000ac020000ac020000ac0200005f
:1001e800ac020000ac020000ac020000ac0200004f
:0801f800ac020000ac020000a3
:020000040000fa
:10020800ac020000ac020000ac020000ac0200002e
:10021800ac020000ac020000ac020000ac0200001e
:10022800ac020000ac020000ac0200000a5f000053
:10023800ac020000ac020000ac020000c860000084
:10024800c0570000ac020000ac020000dc600000f7
:10025800ac020000ac020000ac020000ac020000de
:10026800ac020000ac020000ac020000ac020000ce
:10027800ac020000ac020000ac020000ac020000be
:10028800ac020000ac020000ac020000ac020000ae
:10029800ac020000ac020000ac020000ac0200009e
:1002a800ac020000ac020000ac020000ac0200008e
:1002b800ac020000ac020000ac020000ac0200007e
:1002c800ac020000ac020000ac020000ac0200006e
:1002d800ac020000ac020000ac020000ac0200005e
:1002e800ac020000ac020000ac020000ac0200004e
:1002f800ac020000ac020000ac020000ac0200003e
:10030800ac020000ac020000ac020000ac0200002d
:10031800ac020000ac020000ac020000ac0200001d
:10032800ac020000ac020000ac020000ac0200000d
:10033800ac020000ac020000ac020000ac020000fd
:10034800ac020000ac020000ac020000ac020000ed
:10035800ac020000ac020000ac020000ac020000dd
:10036800ac020000ac020000ac020000ac020000cd
:10037800ac020000ac020000ac020000ac020000bd
:10038800ac020000ac020000ac020000ac020000ad
:10039800ac020000ac020000ac020000ac0200009d
:1003a800ac020000ac020000ac020000ac0200008d
:1003b800ac020000ac020000ac020000ac0200007d
:1003c800ac020000ac020000ac020000ac0200006d
:1003d800ac020000ac020000ac020000ac0200005d
:1003e800ac020000ac020000ac020000ac0200004d
:0803f800ac020000ac020000a1
:020000040000fa
:1027180000000000000000000e2d0000b23d000087
:102728000e2d0000323e0000a69b0000843e0000f3
:10273800a01a0000af3e000075930000d83e0000cc
:1027480000000000003f0000aaf10000123f000056
:10275800a69b0000243f0000f4fd0000343f000069
:1027680093180000443f0000fca90000513f0000fe
:102778002db200005d3f00009eef0000673f0000a3
:10278800d7a30000703f0000c74b0000773f000050
:10279800f62800007c3f0000dbf900007e3f0000c7
:1027a80000000000803f0000dbf900007e3f0000d1
:1027b800f62800007c3f0000c74b0000773f000070
:1027c800d7a30000703f00009eef0000673f0000a5
:1027d8002db200005d3f0000fca90000513f000041
:1027e80093180000443f0000f4fd0000343f00004f
:1027f800a69b0000243f0000aaf10000123f000041
:1028080000000000003f000075930000d83e000063
:10281800a01a0000af3e0000a69b0000843e000006
:102828000e2d0000323e00000e2d0000b23d0000cb
:1028380000000000000000000e2d0000b2bd0000e6
:102848000e2d000032be0000a69b000084be0000d2
:10285800a01a0000afbe000075930000d8be0000ab
:102868000000000000bf0000aaf1000012bf000035
:10287800a69b000024bf0000f4fd000034bf000048
:102888009318000044bf0000fca9000051bf0000dd
:102898002db200005dbf00009eef000067bf000082
:1028a800d7a3000070bf0000c74b000077bf00002f
:1028b800f62800007cbf0000dbf900007ebf0000a6
:1028c8000000000080bf0000dbf900007ebf0000b0
:1028d800f62800007cbf0000c74b000077bf00004f
:1028e800d7a3000070bf00009eef000067bf000084
:1028f8002db200005dbf0000fca9000051bf000020
:102908009318000044bf0000f4fd000034bf00002d
:10291800a69b000024bf0000aaf1000012bf00001f
:102928000000000000bf000075930000d8be000042
:10293800a01a0000afbe0000a69b000084be0000e5
:102948000e2d000032be00000e2d0000b2bd0000aa
:1029580000000000000000000e2d0000b23d000045
:102968000e2d0000323e0000a69b0000843e0000b1
:1029780000000000803f0000dbf900007e3f0000ff
:10298800f62800007c3f0000c74b0000773f00009e
:10299800d7a30000703f00009eef0000673f0000d3
:1029a8002db200005d3f0000fca90000513f00006f
:1029b80093180000443f0000f4fd0000343f00007d
:1029c800a69b0000243f0000aaf10000123f00006f
:1029d80000000000003f000075930000d83e000092
:1029e800a01a0000af3e0000a69b0000843e000035
:1029f8000e2d0000323e00000e2d0000b23d0000fa
:102a080000000000000000000e2d0000b2bd000014
:102a18000e2d000032be0000a69b000084be000000
:102a2800a01a0000afbe000075930000d8be0000d9
:102a38000000000000bf0000aaf1000012bf000063
:102a4800a69b000024bf0000f4fd000034bf000076
:102a58009318000044bf0000fca9000051bf00000b
:102a68002db200005dbf00009eef000067bf0000b0
:102a7800d7a3000070bf0000c74b000077bf00005d
:102a8800f62800007cbf0000dbf900007ebf0000d4
:102a98000000000080bf0000dbf900007ebf0000de
:102aa800f62800007cbf0000c74b000077bf00007d
:102ab800d7a3000070bf00009eef000067bf0000b2
:102ac8002db200005dbf0000fca9000051bf00004e
:102ad8009318000044bf0000f4fd000034bf00005c
:102ae800a69b000024bf0000aaf1000012bf00004e
:102af8000000000000bf000075930000d8be000071
:102b0800a01a0000afbe0000a69b000084be000013
:102b18000e2d000032be00000e2d0000b2bd0000d8
:102b280000000000000000000e2d0000b23d000073
:102b38000e2d0000323e0000a69b0000843e0000df
:102b4800a01a0000af3e000075930000d83e0000b8
:102b580000000000003f0000aaf10000123f000042
:102b6800a69b0000243f0000f4fd0000343f000055
:102b780093180000443f0000fca90000513f0000ea
:102b88002db200005d3f00009eef0000673f00008f
:102b9800d7a30000703f0000c74b0000773f00003c
:102ba800f62800007c3f0000dbf900007e3f0000b3
:102bb80000000000803f0000dbf900007e3f0000bd
:102bc800f62800007c3f0000c74b0000773f00005c
:102bd80000000000f7ff0000f0ff0000e7ff000022
:102be800e3ff0000dcff0000d6ff0000cfff00007d
:102bf800c7ff0000beff0000b6ff0000afff0000e7
:102c0800a8ff0000a2ff000099ff000092ff00004b
:102c18008aff000083ff00007cff000073ff0000b4
:102c28006cff000065ff00005cff000053ff000020
:102c38004cff000044ff00003eff000035ff00008d
:102c48002cff000025ff00001eff000017ff0000fa
:102c58000dff000027ff00003bff000051ff0000b0
:102c680066ff000079ff000091ff0000a8ff000048
:102c7800bdff0000d8ff0000f3ff000010000000b7
:102c88002400000035000000480000006200000039
:102c98007b00000091000000a8000000bc000000bc
:102ca800d2000000e2000000f70000000d01000063
:102cb800270100003d0100005001000061010000f3
:102cc800750100008e0100006f0100005601000030
:102cd8003e0100002601000015010000fe00000072
:102ce800e3000000c7000000b100000098000000e9
:102cf8008000000068000000500000003200000062
:102d08001b000000ffff0000e4ff0000d0ff0000f0
:102d1800b9ff0000a5ff00008cff000077ff00004e
:102d28005bff00003eff00002dff000010ff0000c9
:102d3800fbfe0000dafe0000c6fe0000b3fe000045
:102d4800a0fe000085fe000070fe00008dfe000061
:102d5800a5fe0000bafe0000c8fe0000ddfe00006f
:102d6800effe000001ff000012ff000024ff00003a
:102d780036ff000047ff000060ff000073ff0000ff
:102d88008cff0000a0ff0000b6ff0000c9ff000094
:102d9800dcff0000f5ff0000070000001a0000003b
:102da8002b0000003f0000005000000063000000fe
:102db80076000000890000009a000000a8000000ca
:102dc800be000000d0000000e4000000f800000091
:102dd800ef000000ea000000e1000000da00000057
:102de800d2000000ce000000c8000000c0000000b3
:102df800b9000000b3000000ab000000a50000000f
:102e08009f00000098000000910000008a00000068
:102e1800810000007d0000007900000073000000c0
:102e28006f00000069000000620000005e00000002
:102e3800540000004d00000049000000440000005c
:102e48003d00000038000000320000002c000000a7
:102e580025000000220000001a00000014000000f5
:102e6800100000000d000000070000000000000036
:102e780077010000620100004a01000031010000f2
:102e88001e0100000c010000f9000000e400000031
:102e9800cd000000b200000099000000860000008c
:102ea8007000000059000000410000002a000000e6
:102eb80012000000ffff0000e9ff0000ceff000045
:102ec800b6ff00009eff000085ff00006bff0000ba
:102ed80052ff00003cff000023ff00000bff000032
:102ee800f3fe0000dbfe0000c6fe0000b0fe00009e
:102ef8008dfe00009cfe0000abfe0000bafe000044
:102f0800c9fe0000d6fe0000e7fe0000f6fe000045
:102f180006ff00001aff00002cff000042ff00001f
:102f28004eff00005bff000067ff00007bff000012
:102f38008dff00009fff0000afff0000beff0000f4
:102f4800ceff0000daff0000e9ff0000faff0000f2
:102f58000b0000001c0000002900000034000000e5
:102f6800450000005a0000005a0000005a00000006
:102f78005a0000005a0000005a0000005a000000e1
:102f88005a0000005a0000005a0000005a000000d1
:102f98005a0000005a0000005a0000005a000000c1
:102fa8005a0000005a0000005a0000005a000000b1
:102fb8005a0000005a0000005a0000005a000000a1
:102fc8005a0000005a0000005a0000005a00000091
:102fd8005a0000005a0000005a0000005a00000081
:102fe8005a0000005a0000005a0000004600000085
:102ff80037000000290000001b0000000f0000003f
:1030080001000000f6ff0000e7ff0000daff000003
:10301800d1ff0000c2ff0000b3ff0000a3ff0000c3
:1030280095ff000081ff000076ff000066ff0000aa
:1030380057ff00004aff000038ff000029ff00008a
:103048001bff000010ff000001ff0000f5fe00005c
:10305800e9fe0000dbfe0000d0fe0000c1fe00001b
:10306800b2fe0000a6fe000098fe000089fe0000e7
:10307800a7fe0000c0fe0000d6fe0000eefe000025
:10308800fffe000014ff000027ff00003dff0000c6
:1030980050ff000062ff00007cff00008aff000074
:1030a8009fff0000b6ff0000caff0000ddff000020
:1030b800f5ff0000070000001c0000002b000000c6
:1030c800390000004a0000005b00000068000000b2
:1030d8007f00000095000000a8000000b600000076
:1030e800cb000000db000000e7000000fd0000004e
:1030f8001301000024010000330100003f0100001b
:10310800520100006001000070010000770100001a
:1031180000000000000000000000000001000000a6
:103128000100000001000000010000000100000093
:103138000100000001000000010000000100000083
:103148000100000001000000010000000100000073
:103158000100000001000000010000000100000063
:1033a80097ff000098ff000098ff000098ff0000ba
:1033b80098ff000098ff000098ff000098ff0000a9
:1033c80098ff000098ff000098ff000098ff000099
:1033d80098ff000098ff000098ff000098ff000089
:1033e80098ff000098ff000098ff000097ff00007a
:1033f80097ff000097ff000097ff00009fff000065
:10340800a7ff0000afff0000b7ff0000bfff0000ec
:10341800c7ff0000cfff0000d7ff0000dfff00005c
:10342800e7ff0000efff0000f7ff0000ffff0000cc
:10343800070000000f000000170000001f00000038
:10344800270000002f000000370000003f000000a8
:10345800470000004f000000570000005f00000018
:1034680068000000680000006800000068000000b4
:1034780068000000680000006800000068000000a4
:103488006800000068000000680000006800000094
:103498006800000068000000680000006800000084
:1034a8006800000068000000680000006700000075
:1034b8006700000067000000670000005f00000070
:1034c800570000004f000000470000003f000000c8
:1034d800370000002f000000270000001f00000038
:1034e800170000000f0000000100000001000000ac
:1034f80001000000010000000100000001000000c0
:10350800f9ff0000f1ff0000e9ff0000e1ff000003
:10351800d9ff0000d1ff0000c9ff0000c1ff000073
:10352800b9ff0000b1ff0000a9ff0000a1ff0000e3
:1035380097ff000097ff000097ff000097ff00002b
:1035480097ff000097ff00009fff0000a7ff000003
:10355800afff0000b7ff0000bfff0000c7ff00007b
:10356800cfff0000d7ff0000dfff0000e7ff0000eb
:10357800efff0000f7ff0000ffff0000070000005a
:103588000f000000170000001f00000027000000c7
:103598002f000000370000003f0000004700000037
:1035a8004f000000570000005f000000720000009c
:1035b8007200000070000000700000006c00000045
:1035c8006c0000005f000000570000004f00000082
:1035d800470000003f000000370000002f000000f7
:1035e800270000001f000000170000000f00000067
:1035f80007000000ffff0000f7ff0000efff0000da
:10360800e7ff0000dfff0000d7ff0000cfff00004a
:10361800c7ff0000bfff0000b7ff0000afff0000ba
:10362800a7ff000098ff000098ff000098ff000027
:103638004800000048000000480000004800000062
:1036480040000000380000003000000028000000a2
:103658002000000018000000100000000800000012
:1036680000000000f8ff0000f0ff0000e8ff000085
:10367800e0ff0000d8ff0000d0ff0000c1ff0000fd
:10368800c2ff0000c2ff0000c2ff0000c2ff00002e
:10369800c2ff0000c2ff0000c2ff0000c2ff00001e
:1036a800c2ff0000c2ff0000c2ff0000c2ff00000e
:1036b800c2ff0000c2ff0000c2ff0000c2ff0000fe
:1036c800c2ff0000c2ff0000c2ff0000c2ff0000ee
:1036d800c2ff0000c2ff0000c2ff0000c2ff0000de
:1036e800c2ff0000c2ff0000c2ff0000c2ff0000ce
:1036f800c0ff0000c0ff0000c0ff0000c0ff0000c6
:10370800c8ff0000d0ff0000d8ff0000e0ff000065
:10371800e8ff0000f0ff0000f8ff000000000000d4
:103728000800000010000000180000002000000041
:1037380028000000300000003800000047000000aa
:10374800470000004700000047000000410000005b
:103758003b000000350000002f0000002900000099
:10376800230000001d0000001700000011000000e9
:103778000b00000005000000ffff0000ffff000035
:10378800ffff0000ffff0000ffff0000ffff000039
:1037980004000000090000000e00000013000000f3
:1037a800180000001d000000220000002700000093
:1037b8002c00000031000000360000003b00000033
:1037c80048000000480000004800000048000000d1
:1037d80048000000480000004800000048000000c1
:1037e80048000000480000004800000048000000b1
:1037f80048000000480000004800000048000000a1
:103808004800000048000000480000004800000090
:103818004800000048000000480000004800000080
:103828004800000048000000480000004800000070
:103838004800000048000000480000004700000061
:103848004700000047000000480000004800000052
:103858004800000048000000480000004800000040
:103868004800000048000000480000004800000030
:103878004800000048000000480000004800000020
:103888004800000048000000480000004800000010
:103898004800000048000000480000004800000000
:1038a80048000000480000004800000048000000f0
:1038b800480000004a0000004a0000004a000000da
:1038c80000000000f1ff0000e2ff0000d1ff00004f
:1038d800c1ff0000b1ff0000a1ff000091ff000040
:1038e8007fff000070ff000064ff000055ff00002c
:1038f8004aff000040ff000037ff00002fff0000d4
:1039080029ff000024ff000022ff000021ff000023
:1039180021ff000024ff000029ff000030ff000005
:1039280037ff000041ff00004bff000057ff000079
:1039380063ff000072ff00007fff00008cff0000a3
:1039480099ff0000a7ff0000b6ff0000c7ff0000b6
:10395800d9ff0000e8ff0000faff00000e00000099
:103968002100000033000000450000005600000060
:103978006700000079000000870000009500000043
:10398800a4000000af000000ba000000c30000005f
:10399800ca000000d0000000d4000000d6000000db
:1039a800d7000000d6000000d5000000d0000000bd
:1039b800c8000000c0000000b7000000ae00000012
:1039c800a3000000970000008b0000007e000000ac
:1039d800700000006400000056000000460000006f
:1039e8003900000029000000170000000200000054
:1039f800f4ff0000e6ff0000daff0000d1ff00003e
:103a0800c7ff0000beff0000b8ff0000b3ff0000c2
:103a1800afff0000adff0000adff0000adff0000ec
:103a2800adff0000adff0000adff0000aeff0000dd
:103a3800b0ff0000b3ff0000b5ff0000baff0000b0
:103a4800c7ff0000d7ff0000e7ff0000faff0000f3
:103a58000d0000001f0000003000000041000000c1
:103a680053000000580000005c0000005b000000ec
:103a780058000000550000005100000050000000f0
:103a880051000000510000005100000050000000eb
:103a98004b00000046000000420000003c0000000f
:103aa800330000002700000017000000020000009b
:103ab80000000000ba000000b8000000b6000000d6
:103ac800b4000000b2000000b0000000aa0000002e
:103ad800a30000009a00000090000000860000008b
:103ae800790000006c0000005f000000500000003a
:103af800410000003100000020000000100000001c
:103b0800fdff0000eaff0000d8ff0000c7ff00002b
:103b1800b6ff0000a6ff000097ff000089ff000025
:103b28007dff000070ff000065ff00005dff0000e2
:103b380056ff00004fff000049ff000045ff00004e
:103b480040ff00003dff00003bff000039ff000080
:103b58003aff00003eff000042ff000047ff000060
:103b68004eff000056ff00005eff000069ff0000e6
:103b780074ff00007fff00008fff00009dff000022
:103b8800acff0000b9ff0000caff0000dcff000026
:103b9800eeff0000010000001200000023000000fa
:103ba80033000000430000005200000060000000e5
:103bb8006c00000078000000840000008d00000008
:103bc800950000009e000000a4000000ab0000006b
:103bd800b0000000b4000000b7000000bb00000007
:103be800bd000000b8000000b0000000a700000001
:103bf8009b000000900000008000000071000000a1
:103c080060000000510000003e0000002f0000008e
:103c1800210000001300000001000000eeff00007a
:103c2800dcff0000c8ff0000b6ff0000a5ff000091
:103c380095ff00008cff000085ff000082ff000058
:103c48007fff000080ff000082ff000086ff000069
:103c58008cff000095ff0000a6ff0000baff0000df
:103c6800ceff0000e2ff0000f1ff000003000000ab
:103c78001100000023000000320000004000000096
:103c88005300000065000000770000008700000076
:103c980096000000a0000000aa000000b400000088
:103ca800bc00000000000000000000000000000050
:103cb80001010000010100000101000001010000f4
:103cc80001010000010100000101000001010000e4
:103cd80001010000010100000101000001010000d4
:103ce80001010000010100000101000001010000c4
:103cf80001010000010100000101000001010000b4
:103d080001010000010100000101000001010000a3
:103d18000101000001010000010100000101000093
:103d28000101000001010000010100000101000083
:103d38000101000001010000010100000101000073
:103d48000101000001010000000000000000000067
:103d58000000000000000000000000000101000059
:103d68000101000000000000000000000000000049
:103d78000101000001010000010100000101000033
:103d8800010000000000000000000000000000002a
:103d98000101000001010000000000000000000017
:103da800000000000000000000000000000000000b
:103db8000000000000000000f8ff0000f0ff000015
:103dc800e8ff0000e0ff0000d8ff0000d0ff00007f
:103dd800c8ff0000c0ff0000b8ff0000b0ff0000ef
:103de800a8ff0000a0ff000093ff000093ff000061
:103df80093ff000093ff000093ff00009bff00006b
:103e0800a3ff0000abff0000b3ff0000bbff0000f2
:103e1800c3ff0000ceff0000ceff0000ceff000071
:103e2800ceff0000ceff0000ceff0000ceff000056
:103e3800ceff0000ceff0000ceff0000ceff000046
:103e4800ceff0000ceff0000ceff0000ceff000036
:103e5800ceff0000ceff0000ceff0000ceff000026
:103e6800ceff0000ceff0000ceff0000d6ff00000e
:103e7800deff0000e6ff0000eeff0000f6ff000096
:103e8800feff0000060000000e0000001600000003
:103e98001e00000026000000310000003100000074
:103ea8003100000031000000310000003100000046
:103eb8003100000031000000310000003100000036
:103ec8003100000031000000310000003100000026
:103ed8003100000031000000300000003000000018
:103ee8003000000030000000300000003800000002
:103ef800400000004800000050000000580000008a
:103f0800600000006c0000006c0000006c00000005
:103f18006c0000006c000000650000005e000000fe
:103f28005700000050000000490000004200000057
:103f38003b000000340000002d00000026000000b7
:103f48001f00000018000000110000000100000020
:103f5800010000006c0000006c0000006c00000014
:103f68006c0000006c000000640000005c000000b1
:103f7800540000004c000000440000003c00000019
:103f8800340000002c000000240000001c00000089
:103f9800140000000a000000fbff0000fbff000007
:103fa800fbff0000fbff0000fbff0000fbff000021
:103fb800fbff0000fbff0000fbff0000fbff000011
:103fc800fbff0000f8ff0000f8ff0000f8ff00000a
:103fd800f8ff0000f8ff0000f6ff0000f0ff000007
:103fe800e8ff0000e0ff0000d8ff0000d0ff00005d
:103ff800c8ff0000c0ff0000b8ff0000b0ff0000cd
:10400800a8ff0000a0ff000092ff000092ff000040
:1040180092ff000092ff000092ff000092ff000054
:1040280092ff000092ff000092ff000092ff000044
:1040380092ff000092ff000092ff000092ff000034
:1040480092ff000092ff000092ff000092ff000024
:1040580092ff000092ff000092ff00009aff00000c
:10406800a2ff0000aaff0000b2ff0000baff000094
:10407800c2ff0000caff0000d2ff0000daff000004
:10408800e2ff0000eaff0000f8ff0000f8ff000070
:10409800f8ff0000f8ff0000f8ff0000f8ff00003c
:1040a800f8ff0000f8ff0000f8ff0000f8ff00002c
:1040b800f8ff0000f8ff0000fcff0000fcff000014
:1040c800fcff0000fcff0000fdff000005000000f1
:1040d8000d000000150000001d0000002500000074
:1040e8002d000000350000003d00000045000000e4
:1040f8004d000000550000005d0000006c0000004d
:104108006c000000009500000000000000000000a6
:1041180001f900000000000000000000088700000e
:10412800040000000000000009af000000000000cb
:10413800010000000a1b0000000000000100000050
:104148000cc3000001000000000000000daf0000db
:10415800020000000000000010ff00000000000046
:104168000000000011ff0000000000000100000036
:1041780012ff0000000000000100000018ff00000e
:10418800000000000100000019ff0000000000000e
:104198000100000020ff00000000000000000000f7
:1041a80021ff0000000000000000000026df0000e2
:1041b800010000000000000037730000000000004c
:1041c800000000003a250000040000000000000084
:1041d8003b250000000000000000000029ff00004f
:1041e800040000000000000017ff000000000000ad
:1041f80000000000496e0000697400006961000059
:104208006c6900007a65000020500000574d0000de
:10421800004c000069730000736100006a6f0000c1
:1042280075730000206f000072620000697400005e
:10423800205800003a730000696e0000282500002d
:10424800642f000037320000292c0000205900009c
:104258003a200000636f0000732800002564000006
:104268002f370000322900000a000000496e0000c4
:1042780069740000696100006c6900007a650000db
:10428800205300007563000063650000737300002d
:104298000a000000204e00006f2000005344000078
:1042a8002063000061720000642e0000200a0000f4
:1042b8000044000072610000772000006672000070
:1042c8006f6d0000206900006e74000065720000c8
:1042d8006e6100006c2000006d6500006d6f0000cd
:1042e800727900002e2000000a00000043610000df
:1042f8006e6e00006f740000206900006e69000097
:1043080074690000616c0000697a00006520000093
:10431800534400002e0a000000640000617400008d
:1043280061250000642e0000637300007600000021
:1043380072000000534400005f6d00006f640000cd
:1043480065200000466900006c650000436c0000b1
:104358006f730000652e0000206400006174000087
:1043680061250000642000006e7500006d3a0000b1
:1043780025640000200a0000006600007261000049
:104388006d650000256400002e6300007376000050
:1043980000530000445f00006d6f0000646500007a
:1043a80020460000696c0000654300006c6f000047
:1043b800736500002e20000046720000616d000049
:1043c800652000006e7500006d3a0000256400004d
:1043d800200a000000430000656e000074650000bc
:1043e80072200000506f000073200000583a00004f
:1043f800256400002c200000593a000025640000c4
:104408000a000000496e000069740000696100003c
:104418006c6900007a65000020540000696d000096
:10442800657200000a0000000a20000053610000c5
:10443800666500007479000020530000746f000066
:10444800702100002120000043680000656300001f
:104458006b20000044650000766900006365000079
:10446800212100000a000000202500007320000020
:1044780000730000776d0000002a00002a53000036
:104488007769000074630000682000004d6f000029
:10449800646500002a2a0000200a00000075000058
:1044a800726d0000002a00002a55000041520000e9
:1044b800542000004d6f0000646500002a2a0000a7
:1044c800200a00000073000072740000002a000037
:1044d8002a53000074610000727400002a2a000048
:1044e800200a00000073000074700000002a000019
:1044f8002a530000544f0000502a00002a200000d0
:104508000a000000667200006d0000002a2a000000
:1045180046720000616d0000652000004d6f0000cc
:10452800646500002a2a0000200a000000730000c9
:1045380077300000002a00002a53000057200000ae
:10454800302a00002a2000000a00000073770000cb
:10455800310000002a2a00005357000020310000d3
:104568002a2a0000200a00000073000077320000a9
:10457800002a00002a53000057200000322a0000b9
:104588002a2000000a0000007377000033000000b2
:104598002a2a000053570000203300002a2a00006e
:1045a800200a0000007200006f740000002a00005a
:1045b8002a5200006f74000061740000696f0000e7
:1045c8006e2a00002a2000000a0000007374000010
:1045d800720000002a2a000053740000726f000065
:1045e8006b6500002a2a0000200a00000061000014
:1045f8006c770000002a00002a4100006c77000058
:1046080061790000732a00002a2000000a000000d7
:10461800736400006d0000002a2a00005344000063
:10462800204d00006f640000652a00002a20000069
:104638000a000000696e00006d0000002a2a0000d0
:10464800496e000074650000726e0000616c000025
:10465800204d00006f640000652a00002a20000039
:104668000a00000064620000670000002a2a0000b7
:104678004465000062750000672000004d6f00006f
:10468800646500002a2a0000200a00000066000075
:1046980070610000002a00002a46000072610000d4
:1046a8006d65000020500000617500007365000012
:1046b800202000005374000061740000757300002e
:1046c8003a20000025640000202a00002a2000006b
:1046d8000a00000072730000740000002a2a00001b
:1046e800526500007374000061720000742a0000b3
:1046f8002a2000000a000000636500006e3d0000eb
:10470800003d00002c0000002a2a0000436500003c
:104718006e74000065720000205000006f73000086
:10472800205800003a250000642c000020590000a1
:104738003a250000642000002d3e00000020000003
:10474800583a0000256400002c200000593a000067
:1047580025640000202a00002a0a000000660000e4
:104768006e6f00003d00000031320000333400005d
:10477800353600003738000039300000002a0000c4
:104788002a460000726100006d650000204e00009e
:104798006f2000003a20000025640000202d000052
:1047a8003e2000000025000064200000202a0000b0
:1047b8002a0a000000640000656700003d00000050
:1047c8002a2a0000416e0000676c00006520000086
:1047d8003a2000002564000020640000656700009e
:1047e80072650000652000002d3e000020000000da
:1047f8002564000020640000656700007265000001
:10480800652000002a2a00000a0000000d0a0000a6
:10481800007800005f6300006d640000303a00001b
:104828002025000064090000207800005f72000065
:1048380065730000303a000020250000640900007c
:10484800207800005f6300006d640000313a0000ca
:104858002025000064090000207800005f72000035
:1048680065730000313a0000202500006420000034
:1048780045520000523a000020250000640a00005a
:1048880000000000222c000022000000220a000084
:04489800000000001c
:020000040000fa
:10489c001600fa00881f780041c2bf0001c8b3009f
:1048ac00014060000004e0002b003a00ec0307001c
:1048bc0040c0b300004f7800cde2a80000c0eb0070
:1048cc00bd030700cde2a9001e4fe9000e84e800ed
:1048dc00680047006011b8008040eb0054000700ee
:1048ec00680047001001be00028cbe00a0019000c1
:1048fc00230498000e80e80010407800e14f50002f
:10490c00020032001e04e000ebff3a000e80e800cb
:10491c0010407800e14f5000040032009f03070064
:10492c000000eb00200f980029003700f30307006c
:10493c0020ccbf000004e00003003a00110020006e
:10494c00210f980022003700940307000001eb00b0
:10495c00220f98001e0037000e84e8006e004700fe
:10496c006011b80061c0b300310007006e00470051
:10497c001001be00028cbe00a00190002304980020
:10498c000e80e80090007800c0c02e00008060000f
:10499c000000e0000c00320080030700d703070082
:1049ac0020ccbf000004e00003003a0010002000ff
:1049bc00200f980006003700780307008000eb00fa
:1049cc00210f98000200370012002000220f9800df
:1049dc002e0890004f0478000080fa0000000600ba
:1049ec000000fa00c06180000080fa0000000600a0
:1049fc000000fa00a0618000b16180000080fa0024
:104a0c00000006000000fa00cde2a800c9e2a900ef
:104a1c000080fa00000006000000fa005f030700a7
:104a2c00cde2a8000000eb000080fa0000000600b8
:104a3c001c00fa00500f980041579800320f980054
:104a4c00430f9800cde2a9004e5090000080fb006f
:104a5c006600b9008000780060082a0000804000e1
:104a6c00904078006c004700614098006c00470053
:104a7c003e099000ce099000120098002300980087
:104a8c004e5090000080fb006600b900800078005a
:104a9c0060082a0000804000904090006c004700a5
:104aac00014878006c014700b2009000000420001f
:104abc0000807000300198006c004700604090004e
:104acc003d0307006c004700504090003a0307007c
:104adc006c00470040409000370307006c00470013
:104aec0030409000340307006c00470020409000d9
:104afc00310307006c004700104078002e030700bc
:104b0c004e509000e54f500001003a00380307006a
:104b1c0040012000200798003503070080407800f2
:104b2c0066004700014878002e0090000000e90064
:104b3c00200798006600470010407800e14f4000c5
:104b4c0003003a002e0090000000e000f2ff3a0053
:104b5c004e5090000080fb006600b9008080e80099
:104b6c0060082a000080400010007800e20f50001e
:104b7c0009003a0066004700904078006600470044
:104b8c00114098001a030700804078006600470027
:104b9c0001487800390037004e5090000080fb002f
:104bac006600b9008080e80060082a0000804000a0
:104bbc0010007800e10f500017003a0000002000b0
:104bcc00a1002000008fbe00090307008040780080
:104bdc0066004700014878000080eb008080eb0005
:104bec001e0f40005e97480066004700104078009a
:104bfc000004e00004003a001e00be00e00f50006c
:104c0c00e08f5800f0ff3a00e60047000040eb0050
:104c1c0080487800190037004e5090000080fb004f
:104c2c006600b9008080e80060082a00008040001f
:104c3c0010007800e40f500010003a00ec0207005e
:104c4c00804078006600470051409800e802070059
:104c5c00804078006600470041409800e40207005d
:104c6c00804078006600470031409800e002070061
:104c7c0080407800660047002140980000c0eb009f
:104c8c00cd0207004e5090000080fb006600b9007a
:104c9c00e400400060082a000080400010407800ca
:104cac000004e00001003a00cde2a80066004700d5
:104cbc001001be00de0890008288be00a0019000aa
:104ccc005e099000230198005e0890000080fa00b5
:104cdc00000006001800fa00000f9800110f980051
:104cec00220f98008e80e8000020200080087800b9
:104cfc000e81e80000202000010020001001980027
:104d0c00210198000e80e800ae0890003100980058
:104d1c000e80e8000e0990009e0990004200980059
:104d2c00530098008e80e80010c0b300c048980073
:104d3c000e80e8000e000700004f78001e04e00013
:104d4c0003003a0013002000330f980005003700d1
:104d5c0000c0eb009e4f1000f5ff3a008000eb0006
:104d6c00310f98003e0890000080fa000000060009
:104d7c002a00fa00881f7800600798006e009000e7
:104d8c00404890000080fb00401798004e109000a7
:104d9c00e20f500085003200ce109000e28f5000e0
:104dac0007003c004e1190000200e0000c003200a5
:104dbc00ce119000e18f51000c003200e80037005a
:104dcc004e109000e30f500050003200e00f200016
:104ddc00ce109000808f5000d2003200e0003700df
:104dec000001eb0032179800e20037000020200091
:104dfc00306088006e00900063c22000060009003d
:104e0c00b0197800e000b1003accbf000004e0001b
:104e1c0008003a0070618000816180004909dd0062
:104e2c00c700de00810071004900dd007061880060
:104e3c008161880042618000536180000020200065
:104e4c0001002000800f5100818f59000e003e00a0
:104e5c001000200000608800726180008361800077
:104e6c00660447006e00470081c0b300f0fe0700e7
:104e7c006e0047001001be00028cbe00a001900025
:104e8c00230498000d0037000000eb000060880040
:104e9c0072618000836180006604470074004700e3
:104eac0091c0b300e2fe0700740047001001be0081
:104ebc00028cbe00a00190002304980066004700fd
:104ecc00104078000004e00006003200ee00900074
:104edc00e0cfb300c04898001000200030179800b5
:104eec00a400370000002000410020001060880062
:104efc0021608800ee00900030c0b300c0489800dc
:104f0c0011002000311798009a00370010608000c3
:104f1c0021608000e00f5000e08f58001d0032002f
:104f2c00106080002160800061005000e08058001b
:104f3c0010608800216088002d020700404798000f
:104f4c004e409000e14f40000f0032004e40900068
:104f5c00e24f400006003a00ee00900020c0b30083
:104f6c00c0489800220020003217980081003700ba
:104f7c00ee009000e0cfb300c04898001300200072
:104f8c00331798007b003700100020003017980072
:104f9c0078003700ee009000e0cfb300c0489800d6
:104fac00110020003117980072003700406180001a
:104fbc0051618000e00f5000e08f58004900320032
:104fcc006e00900010007800306188006e00900038
:104fdc003000900060618800426180005361800065
:104fec0030618000010020000000510081805900d8
:104ffc004061880051618800316080003061800020
:10500c0000805000306088006261800012079800b8
:10501c0033618000030f78001e00e0001c0032009a
:10502c001e0090000000e90010079800f00f20000f
:10503c00401288001e0090000000e8001007980045
:10504c001e0fe9001e00e0000900320040c2bf0044
:10505c00614060000004e000fcff32004012800060
:10506c00804078001e00900001487800efff370068
:10507c0040c2bf00614060000004e000fcff320051
:10508c0040128000804078001e009000014878009b
:10509c00306080000000e0000f003a00d4010700ef
:1050ac00d30107004061800051618000e00f500087
:1050bc00e08f580003003200ee00900030c0b300c7
:1050cc00c0489800002020003060880010002000ac
:1050dc003017980027003700210020003117980066
:1050ec0024003700006080000000e00004003a005b
:1050fc007a0047006011b80051c0b3004cfe0700a5
:10510c00cde2a80000c0eb00ab010700ee00900060
:10511c000040eb00c04898000001eb0032179800eb
:10512c0014003700ee00900000c0eb00c04898005f
:10513c0066044700000220000e0040006011b80019
:10514c0051c0b3003afe0700000220000e004000e0
:10515c001001be00028cbe00a00190002304980038
:10516c00cde2a80000c0eb0093010700f00f200077
:10517c00301798003e1090004f0478000080fa0021
:10518c00000006002c00fa00881f780070079800b9
:10519c007e009000404890000080fb005017980063
:1051ac005e109000e20f500078003200de1090008c
:1051bc00e28f500007003c005e1190000200e000fe
:1051cc000f003200de119000e18f51000f00320011
:1051dc00280137005e109000e40f5000fe003200f2
:1051ec00de109000e48f5000bb003500e00f200073
:1051fc005e119000800f5100130132001d01370029
:10520c008001eb00431798001c01370000202000a0
:10521c00706088007e00900061c2200006000900ca
:10522c00b0187800e000b10042618000536180004a
:10523c000020200001002000800f5100818f5900b8
:10524c0003003e00a0c0b30008ecb70028003700f4
:10525c00b0c0b30008ecb700406180005161800021
:10526c004709dd004900de0000007100c908de00be
:10527c0020079800310798002e009000be00900087
:10528c00e00f5000e08f580006003a002e0090000e
:10529c00be00900061004000e080480020079800ac
:1052ac003107980068044700700047006011b8008f
:1052bc00f1c0b300defd0700700047001001be0016
:1052cc00028cbe00a00190002304980068004700e7
:1052dc00104078000004e00005003a00760047001a
:1052ec002e019000be01900031c1b300d0fd07002b
:1052fc003accbf000004e00008003a007061800066
:10530c00816180004909dd00c700de008100710069
:10531c004900dd0070618800816188007261800045
:10532c008361800081c020009140780068044700b0
:10533c007c004700befd07007c0047001001be004a
:10534c00028cbe00a0019000230498006800470066
:10535c00104078000004e00006003200fe009000cf
:10536c0000c0eb00c0489800f00f200040179800d8
:10537c00c2003700fe00900020c0b300c048980067
:10538c002100200041179800bc003700716080009c
:10539c0000202000808f500008003a0008ccbf008d
:1053ac00eb4f500003003a00c0cfb30002010700de
:1053bc0002003700e0cfb300ff0007007e00900032
:1053cc0010007800306188007e0090003000900062
:1053dc006061880042618000536180003061800010
:1053ec0001002000000051008180590040618800bc
:1053fc005161880071608000306180000080500035
:10540c007060880062618000120798003361800030
:10541c00030f78001e009000104078000080fb0005
:10542c00401288001e0090000000e8001007980051
:10543c001e0fe90040c2bf00614060000004e000a4
:10544c00fcff32004012800010ecb7001e00e000a0
:10545c00f0ff3a00706080000000e0001b003a0092
:10546c00002020007060880000c0eb00d200070014
:10547c0000c0eb00d0000700dd0007000080fb003f
:10548c007f006000e50f500006003200fe00900027
:10549c00e0cfb300c04898003000200040179800bf
:1054ac0076003700fe00900030c0b300c048980072
:1054bc0000002000a100200050608800616088007e
:1054cc0031002000411798006c00370022002000aa
:1054dc0042179800690037005060800061608000be
:1054ec00e00f5000e08f5800350032005060800013
:1054fc006160800061005000e080580050608800be
:10550c006160880000c0eb00ab000700b80007002a
:10551c0010ecb70010ccbf000004e00025003200f6
:10552c004061800051618000e00f5000e08f580016
:10553c001a003a0000002000a100200050608800f2
:10554c006160880008ccbf00eb4f50000a003a00a5
:10555c00d0cfb3009800070000c0eb009600070006
:10556c00fe00900040c0b300c048980033002000fb
:10557c004317980041003700cde2a80000c0eb00b3
:10558c008d000700fe0090000040eb00c048980022
:10559c000000eb004017980038003700fe00900028
:1055ac0020c0b300c048980021002000411798008b
:1055bc003200370032002000421798002f003700cd
:1055cc00fe009000e0cfb300c048980033002000ec
:1055dc0043179800290037005060800061608000fc
:1055ec00e00f5000e08f5800170032005060800030
:1055fc006160800061005000e080580050608800bd
:10560c00616088007a00070010ecb70010ccbf0076
:10561c000004e00009003200cde2a80000c0eb005d
:10562c0065000700fe0090000040eb00c0489800a9
:10563c000000eb00401798001000370031002000ec
:10564c00411798000d003700200220000e0040008a
:10565c006011b80051c0b300f5fc0700cde2a80002
:10566c0000c0eb0054000700fe00900000c0eb00ef
:10567c00c0489800f20f2000421798004e1090007e
:10568c004f0478000080fa00000006000c00fa00bd
:10569c00100798002107980032079800034f9800d4
:1056ac000e4890000004e00008003a001e00900034
:1056bc00ae009000e00f5000e08f580003003a005d
:1056cc000000eb00500798001b0037000020200062
:1056dc00906088000020200001002000a06088005d
:1056ec00b1608800be009000c16088001e00900070
:1056fc00ae009000d0608800e160880010c0b3005c
:10570c001eecb70020c120009efe0700004f780061
:10571c001e04e00003003a0011002000510798001d
:10572c000500370000c0eb009e4f1000f5ff3a005b
:10573c008000eb00510798005e0090000080fa009a
:10574c00000006000000fa000000eb000080fa00e8
:10575c00000006000200fa00004f78001e4078009e
:10576c000080fb000100200002002000030020004c
:10577c0064532700c52520006033b800c0eb070038
:10578c00843e2000050020006033b80064ec070064
:10579c0031eb07000080fa00000006000000fa0060
:1057ac0000128000f1ff2700010060000012880049
:1057bc000080fa00000006000400fa002047980060
:1057cc002e4090000080fb004012880040c2bf00b9
:1057dc00614060000004e000fcff320040128000d9
:1057ec00004f78000000eb000080fa00000006007b
:1057fc000000fa00f00f20004012880040c2bf00e9
:10580c00614060000004e000fcff320040128000a8
:10581c000080fb000080fa00000006000200fa0085
:10582c00000f78000000eb00001288000000eb0075
:10583c0010128800101280001e00700010128800d8
:10584c0042c2a8004302a900c982a900c9c2a9008a
:10585c00c9a2a80041e2a8000080fa0000000600de
:10586c000400fa00300020001007980030062000d9
:10587c00000f78001e00e00012003a000080eb00e0
:10588c00e6ff07001b003700800020009e0f100071
:10589c000e0036001e0090000000e9001007980072
:1058ac009e007800638060000000e000020032007f
:1058bc001e007800640f40001e0078004200de00dd
:1058cc00000f78001e00e000efff3a001e0fe90009
:1058dc001e0078004200dd000080ea00fc00600041
:1058ec001e0090008080700000022000008070007c
:1058fc00caff07000080fa00000006007a00fa00d8
:10590c00889fbe000040eb0020ecb7000040eb008d
:10591c0021ecb7006000b800a0618800b16188007c
:10592c000040eb003aecb700cde2a800ccff07003a
:10593c00e0c1b30087ff0700cde2a8000000eb0038
:10594c00400798000500370000c0eb009aff0700e5
:10595c004e0090000000e800400798004e009000b8
:10596c00e90f5000f8ff3600400620004007980071
:10597c00cde2a80000c0eb008fff0700cde2a9002c
:10598c004e0090000000e900400798006a044700b0
:10599c00400220000e0040006011b8008040eb0077
:1059ac0023fc0700400220000e0040001001be0046
:1059bc00028cbe00a0019000230498006a004700ee
:1059cc0010407800e14f5000030032004e00900070
:1059dc000000e000e6ff3a004e0090000000e000fe
:1059ec0025003a00cde2a80000c0eb0072ff0700d2
:1059fc00cde2a9006a044700a00220000e0040007e
:105a0c006011b80051c0b30009fc0700a0022000cf
:105a1c000e0040001002be00048cbe00a0029000dc
:105a2c00250498006a044700000320000e00400083
:105a3c006011b8008040eb00fdfb07000003200064
:105a4c000e0040001001be00028cbe00a0019000b0
:105a5c00230498006a00470010407800e14f500082
:105a6c000500320020c0b30020ecb70004c22000b7
:105a7c0064379800ac0137006a04470060032000cb
:105a8c000e004000a21a20000300200021c0b30029
:105a9c00e7fb0700600320000e0040001001be0071
:105aac00028cbe00a0019000230498006a004700fd
:105abc00a000900010009000f2ff200003002000d6
:105acc0000027800810278000200780083007800e0
:105adc0000016200018062006102b8007437980016
:105aec00053f98007e3090008e389000c000dd009d
:105afc000000200070379800013f98007e30900025
:105b0c008e3890006112b80074379800053f9800e9
:105b1c007e3190008e3990000200700083807000fe
:105b2c00a21a200003002000820f5000838f58001f
:105b3c004f003a006a0047001000780064006000d3
:105b4c000000e0004a003a006a044700c00320004d
:105b5c000e0040006011b80001c1b300b4fb070097
:105b6c00c00320000e0040001002be00048cbe00da
:105b7c00a0029000250498000000eb00400798005c
:105b8c0019003700200420000e0040006011b800fe
:105b9c00f1c0b300a6fb07006a0447008004200094
:105bac000e004000020020000300240021c1b300bd
:105bbc009ffb0700800420000e0040001001be0077
:105bcc00028cbe00a0019000230498006a004700dc
:105bdc00104078000004e000060032004e009000f7
:105bec000000e800400798004e009000e10f4000d4
:105bfc00e4ff3a004e009000e10f400002003a0032
:105c0c0020c0b30020ecb7006a044700e004200079
:105c1c000e0040006011b80001c1b30084fb070006
:105c2c00e00420000e0040001002be00048cbe00f8
:105c3c00a0029000250498006a004700a000900084
:105c4c00100090004e08de00010020006100600092
:105c5c000004e0000300320010c0b3003aecb700bf
:105c6c00270037000040eb003aecb7002400370067
